{
  "address": "0x8361194Ef57cC0DDF216aF834a7dB5963df9E88b",
  "abi": [
    {
      "inputs": [
        {
          "internalType": "contract OmniName",
          "name": "_omniname",
          "type": "address"
        }
      ],
      "stateMutability": "nonpayable",
      "type": "constructor"
    },
    {
      "inputs": [],
      "name": "InvalidDelegate",
      "type": "error"
    },
    {
      "inputs": [],
      "name": "InvalidEndpointCall",
      "type": "error"
    },
    {
      "inputs": [
        {
          "internalType": "bytes",
          "name": "options",
          "type": "bytes"
        }
      ],
      "name": "InvalidOptions",
      "type": "error"
    },
    {
      "inputs": [],
      "name": "LzTokenUnavailable",
      "type": "error"
    },
    {
      "inputs": [
        {
          "internalType": "uint32",
          "name": "eid",
          "type": "uint32"
        }
      ],
      "name": "NoPeer",
      "type": "error"
    },
    {
      "inputs": [
        {
          "internalType": "uint256",
          "name": "msgValue",
          "type": "uint256"
        }
      ],
      "name": "NotEnoughNative",
      "type": "error"
    },
    {
      "inputs": [],
      "name": "NotOwner",
      "type": "error"
    },
    {
      "inputs": [
        {
          "internalType": "address",
          "name": "addr",
          "type": "address"
        }
      ],
      "name": "OnlyEndpoint",
      "type": "error"
    },
    {
      "inputs": [
        {
          "internalType": "uint32",
          "name": "eid",
          "type": "uint32"
        },
        {
          "internalType": "bytes32",
          "name": "sender",
          "type": "bytes32"
        }
      ],
      "name": "OnlyPeer",
      "type": "error"
    },
    {
      "inputs": [
        {
          "internalType": "address",
          "name": "owner",
          "type": "address"
        }
      ],
      "name": "OwnableInvalidOwner",
      "type": "error"
    },
    {
      "inputs": [
        {
          "internalType": "address",
          "name": "account",
          "type": "address"
        }
      ],
      "name": "OwnableUnauthorizedAccount",
      "type": "error"
    },
    {
      "inputs": [
        {
          "internalType": "address",
          "name": "token",
          "type": "address"
        }
      ],
      "name": "SafeERC20FailedOperation",
      "type": "error"
    },
    {
      "anonymous": false,
      "inputs": [
        {
          "components": [
            {
              "internalType": "uint32",
              "name": "eid",
              "type": "uint32"
            },
            {
              "internalType": "uint16",
              "name": "msgType",
              "type": "uint16"
            },
            {
              "internalType": "bytes",
              "name": "options",
              "type": "bytes"
            }
          ],
          "indexed": false,
          "internalType": "struct EnforcedOptionParam[]",
          "name": "_enforcedOptions",
          "type": "tuple[]"
        }
      ],
      "name": "EnforcedOptionSet",
      "type": "event"
    },
    {
      "anonymous": false,
      "inputs": [
        {
          "indexed": true,
          "internalType": "address",
          "name": "previousOwner",
          "type": "address"
        },
        {
          "indexed": true,
          "internalType": "address",
          "name": "newOwner",
          "type": "address"
        }
      ],
      "name": "OwnershipTransferred",
      "type": "event"
    },
    {
      "anonymous": false,
      "inputs": [
        {
          "indexed": false,
          "internalType": "uint32",
          "name": "eid",
          "type": "uint32"
        },
        {
          "indexed": false,
          "internalType": "bytes32",
          "name": "peer",
          "type": "bytes32"
        }
      ],
      "name": "PeerSet",
      "type": "event"
    },
    {
      "anonymous": false,
      "inputs": [
        {
          "indexed": false,
          "internalType": "string",
          "name": "label",
          "type": "string"
        },
        {
          "indexed": false,
          "internalType": "address",
          "name": "owner",
          "type": "address"
        },
        {
          "indexed": false,
          "internalType": "uint32",
          "name": "senderEid",
          "type": "uint32"
        },
        {
          "indexed": false,
          "internalType": "bytes32",
          "name": "sender",
          "type": "bytes32"
        }
      ],
      "name": "RegisterRequestReceived",
      "type": "event"
    },
    {
      "anonymous": false,
      "inputs": [
        {
          "indexed": false,
          "internalType": "string",
          "name": "label",
          "type": "string"
        },
        {
          "indexed": false,
          "internalType": "address",
          "name": "owner",
          "type": "address"
        },
        {
          "indexed": false,
          "internalType": "uint32",
          "name": "dstEid",
          "type": "uint32"
        }
      ],
      "name": "ReturnRegisterRequest",
      "type": "event"
    },
    {
      "inputs": [],
      "name": "SEND",
      "outputs": [
        {
          "internalType": "uint16",
          "name": "",
          "type": "uint16"
        }
      ],
      "stateMutability": "view",
      "type": "function"
    },
    {
      "inputs": [],
      "name": "SEND_ABA",
      "outputs": [
        {
          "internalType": "uint16",
          "name": "",
          "type": "uint16"
        }
      ],
      "stateMutability": "view",
      "type": "function"
    },
    {
      "inputs": [
        {
          "components": [
            {
              "internalType": "uint32",
              "name": "srcEid",
              "type": "uint32"
            },
            {
              "internalType": "bytes32",
              "name": "sender",
              "type": "bytes32"
            },
            {
              "internalType": "uint64",
              "name": "nonce",
              "type": "uint64"
            }
          ],
          "internalType": "struct Origin",
          "name": "origin",
          "type": "tuple"
        }
      ],
      "name": "allowInitializePath",
      "outputs": [
        {
          "internalType": "bool",
          "name": "",
          "type": "bool"
        }
      ],
      "stateMutability": "view",
      "type": "function"
    },
    {
      "inputs": [
        {
          "internalType": "string",
          "name": "label",
          "type": "string"
        }
      ],
      "name": "available",
      "outputs": [
        {
          "internalType": "bool",
          "name": "",
          "type": "bool"
        }
      ],
      "stateMutability": "view",
      "type": "function"
    },
    {
      "inputs": [
        {
          "internalType": "uint32",
          "name": "_eid",
          "type": "uint32"
        },
        {
          "internalType": "uint16",
          "name": "_msgType",
          "type": "uint16"
        },
        {
          "internalType": "bytes",
          "name": "_extraOptions",
          "type": "bytes"
        }
      ],
      "name": "combineOptions",
      "outputs": [
        {
          "internalType": "bytes",
          "name": "",
          "type": "bytes"
        }
      ],
      "stateMutability": "view",
      "type": "function"
    },
    {
      "inputs": [],
      "name": "endpoint",
      "outputs": [
        {
          "internalType": "contract ILayerZeroEndpointV2",
          "name": "",
          "type": "address"
        }
      ],
      "stateMutability": "view",
      "type": "function"
    },
    {
      "inputs": [
        {
          "internalType": "uint32",
          "name": "eid",
          "type": "uint32"
        },
        {
          "internalType": "uint16",
          "name": "msgType",
          "type": "uint16"
        }
      ],
      "name": "enforcedOptions",
      "outputs": [
        {
          "internalType": "bytes",
          "name": "enforcedOption",
          "type": "bytes"
        }
      ],
      "stateMutability": "view",
      "type": "function"
    },
    {
      "inputs": [
        {
          "components": [
            {
              "internalType": "uint32",
              "name": "srcEid",
              "type": "uint32"
            },
            {
              "internalType": "bytes32",
              "name": "sender",
              "type": "bytes32"
            },
            {
              "internalType": "uint64",
              "name": "nonce",
              "type": "uint64"
            }
          ],
          "internalType": "struct Origin",
          "name": "",
          "type": "tuple"
        },
        {
          "internalType": "bytes",
          "name": "",
          "type": "bytes"
        },
        {
          "internalType": "address",
          "name": "_sender",
          "type": "address"
        }
      ],
      "name": "isComposeMsgSender",
      "outputs": [
        {
          "internalType": "bool",
          "name": "",
          "type": "bool"
        }
      ],
      "stateMutability": "view",
      "type": "function"
    },
    {
      "inputs": [
        {
          "components": [
            {
              "internalType": "uint32",
              "name": "srcEid",
              "type": "uint32"
            },
            {
              "internalType": "bytes32",
              "name": "sender",
              "type": "bytes32"
            },
            {
              "internalType": "uint64",
              "name": "nonce",
              "type": "uint64"
            }
          ],
          "internalType": "struct Origin",
          "name": "_origin",
          "type": "tuple"
        },
        {
          "internalType": "bytes32",
          "name": "_guid",
          "type": "bytes32"
        },
        {
          "internalType": "bytes",
          "name": "_message",
          "type": "bytes"
        },
        {
          "internalType": "address",
          "name": "_executor",
          "type": "address"
        },
        {
          "internalType": "bytes",
          "name": "_extraData",
          "type": "bytes"
        }
      ],
      "name": "lzReceive",
      "outputs": [],
      "stateMutability": "payable",
      "type": "function"
    },
    {
      "inputs": [
        {
          "internalType": "uint32",
          "name": "",
          "type": "uint32"
        },
        {
          "internalType": "bytes32",
          "name": "",
          "type": "bytes32"
        }
      ],
      "name": "nextNonce",
      "outputs": [
        {
          "internalType": "uint64",
          "name": "nonce",
          "type": "uint64"
        }
      ],
      "stateMutability": "view",
      "type": "function"
    },
    {
      "inputs": [],
      "name": "oAppVersion",
      "outputs": [
        {
          "internalType": "uint64",
          "name": "senderVersion",
          "type": "uint64"
        },
        {
          "internalType": "uint64",
          "name": "receiverVersion",
          "type": "uint64"
        }
      ],
      "stateMutability": "pure",
      "type": "function"
    },
    {
      "inputs": [],
      "name": "omniname",
      "outputs": [
        {
          "internalType": "contract OmniName",
          "name": "",
          "type": "address"
        }
      ],
      "stateMutability": "view",
      "type": "function"
    },
    {
      "inputs": [],
      "name": "owner",
      "outputs": [
        {
          "internalType": "address",
          "name": "",
          "type": "address"
        }
      ],
      "stateMutability": "view",
      "type": "function"
    },
    {
      "inputs": [
        {
          "internalType": "uint32",
          "name": "eid",
          "type": "uint32"
        }
      ],
      "name": "peers",
      "outputs": [
        {
          "internalType": "bytes32",
          "name": "peer",
          "type": "bytes32"
        }
      ],
      "stateMutability": "view",
      "type": "function"
    },
    {
      "inputs": [
        {
          "internalType": "string",
          "name": "label",
          "type": "string"
        },
        {
          "internalType": "address",
          "name": "owner",
          "type": "address"
        },
        {
          "components": [
            {
              "internalType": "string",
              "name": "key",
              "type": "string"
            },
            {
              "internalType": "string",
              "name": "value",
              "type": "string"
            }
          ],
          "internalType": "struct Text[]",
          "name": "texts",
          "type": "tuple[]"
        },
        {
          "components": [
            {
              "internalType": "uint256",
              "name": "coinType",
              "type": "uint256"
            },
            {
              "internalType": "bytes",
              "name": "value",
              "type": "bytes"
            }
          ],
          "internalType": "struct Addr[]",
          "name": "addrs",
          "type": "tuple[]"
        },
        {
          "internalType": "bytes",
          "name": "chash",
          "type": "bytes"
        }
      ],
      "name": "register",
      "outputs": [],
      "stateMutability": "nonpayable",
      "type": "function"
    },
    {
      "inputs": [],
      "name": "renounceOwnership",
      "outputs": [],
      "stateMutability": "nonpayable",
      "type": "function"
    },
    {
      "inputs": [
        {
          "internalType": "address",
          "name": "_delegate",
          "type": "address"
        }
      ],
      "name": "setDelegate",
      "outputs": [],
      "stateMutability": "nonpayable",
      "type": "function"
    },
    {
      "inputs": [
        {
          "components": [
            {
              "internalType": "uint32",
              "name": "eid",
              "type": "uint32"
            },
            {
              "internalType": "uint16",
              "name": "msgType",
              "type": "uint16"
            },
            {
              "internalType": "bytes",
              "name": "options",
              "type": "bytes"
            }
          ],
          "internalType": "struct EnforcedOptionParam[]",
          "name": "_enforcedOptions",
          "type": "tuple[]"
        }
      ],
      "name": "setEnforcedOptions",
      "outputs": [],
      "stateMutability": "nonpayable",
      "type": "function"
    },
    {
      "inputs": [
        {
          "internalType": "uint32",
          "name": "_eid",
          "type": "uint32"
        },
        {
          "internalType": "bytes32",
          "name": "_peer",
          "type": "bytes32"
        }
      ],
      "name": "setPeer",
      "outputs": [],
      "stateMutability": "nonpayable",
      "type": "function"
    },
    {
      "inputs": [],
      "name": "targetRegistry",
      "outputs": [
        {
          "internalType": "contract L2Registry",
          "name": "",
          "type": "address"
        }
      ],
      "stateMutability": "view",
      "type": "function"
    },
    {
      "inputs": [
        {
          "internalType": "address",
          "name": "newOwner",
          "type": "address"
        }
      ],
      "name": "transferOwnership",
      "outputs": [],
      "stateMutability": "nonpayable",
      "type": "function"
    },
    {
      "inputs": [
        {
          "internalType": "string",
          "name": "label",
          "type": "string"
        },
        {
          "components": [
            {
              "internalType": "string",
              "name": "key",
              "type": "string"
            },
            {
              "internalType": "string",
              "name": "value",
              "type": "string"
            }
          ],
          "internalType": "struct Text[]",
          "name": "texts",
          "type": "tuple[]"
        },
        {
          "components": [
            {
              "internalType": "uint256",
              "name": "coinType",
              "type": "uint256"
            },
            {
              "internalType": "bytes",
              "name": "value",
              "type": "bytes"
            }
          ],
          "internalType": "struct Addr[]",
          "name": "addrs",
          "type": "tuple[]"
        },
        {
          "internalType": "bytes",
          "name": "chash",
          "type": "bytes"
        }
      ],
      "name": "updateRecords",
      "outputs": [],
      "stateMutability": "nonpayable",
      "type": "function"
    },
    {
      "stateMutability": "payable",
      "type": "receive"
    }
  ],
  "transactionHash": "0x6e143febf979486b0581b29b92ee3594fd59d7fdc24ec24d1dc32368a38a3c4a",
  "args": [
    "0xce4dFd9938076107EF463A19Cfc297bbB3C5aAb4"
  ],
  "numDeployments": 1,
  "solcInputHash": "e650a9f81b9e2dcc782a381dfe2cf6da",
  "bytecode": "0x60e0604090808252346200033c576000908062003323803803809162000026828562000341565b83396020928391810103126200033857516001600160a01b03808216908183036200025457855191635e280f1160e01b835260049480848781855afa9384156200032e578794620002eb575b50875191638da5cb5b60e01b80845282848981855afa938415620002e1578994620002bb575b508290888b518094819382525afa918215620002b1579084929189926200027d575b505016928315620002665786546001600160a01b0319811685178855885194849392849290919083167f8be0079c531659141344cd1fd0a4f28419497f9722a3daafe3b4186f6b6457e08b80a316608052169182156200025857506080511690813b1562000254578491602483928851948593849263ca5eb5e160e01b8452898401525af180156200024a576200021b575b5060c052825190610fbb808301916001600160401b03831184841017620002085750908291620023688339039082f0908115620001fd575060a05251611fcb90816200039d82396080518181816105900152818161097e01528181610d1d01528181611dff0152611eac015260a0518181816109c301528181610fff0152818161110d015281816115b3015281816117560152611820015260c051818181610da00152818161131701526116ea0152f35b8251903d90823e3d90fd5b634e487b7160e01b855260419052602484fd5b9092906001600160401b0381116200023757845291386200014c565b506041602492634e487b7160e01b835252fd5b85513d86823e3d90fd5b8480fd5b632d618d8160e21b81528490fd5b8751631e4fbdf760e01b8152808701889052602490fd5b620002a19250803d10620002a9575b62000298818362000341565b8101906200037b565b3880620000ba565b503d6200028c565b89513d8a823e3d90fd5b83919450620002d990823d8411620002a95762000298818362000341565b939062000098565b8a513d8b823e3d90fd5b9080945081813d831162000326575b62000306818362000341565b8101031262000322575182811681036200032257923862000072565b8680fd5b503d620002fa565b88513d89823e3d90fd5b8280fd5b600080fd5b601f909101601f19168101906001600160401b038211908210176200036557604052565b634e487b7160e01b600052604160045260246000fd5b908160209103126200033c57516001600160a01b03811681036200033c579056fe6080604052600436101561001b575b361561001957600080fd5b005b60003560e01c8063066808fc1461017b57806313137d651461017657806317442b70146101715780631f5e13341461016c5780632ad7f28c146101675780633400288b146101625780635535d4611461015d5780635e280f11146101585780636f09897a14610153578063715018a61461014e5780637d25a05e1461014957806382413eac146101445780638da5cb5b1461013f578063989ac2211461013a578063aeb8ce9b14610135578063b98bd07014610130578063bb0b6a531461012b578063bc70b35414610126578063ca5eb5e114610121578063e4f4fcee1461011c578063f2fde38b146101175763ff7bd03d0361000e57610e5b565b610dcf565b610d8a565b610cec565b610c98565b610c5d565b610b5d565b610b1a565b610afe565b610ad5565b610a77565b610a50565b6109f2565b6109ad565b610968565b6108f6565b610719565b61067c565b610660565b61063e565b610532565b610460565b634e487b7160e01b600052604160045260246000fd5b604081019081106001600160401b038211176101b157604052565b610180565b6001600160401b0381116101b157604052565b606081019081106001600160401b038211176101b157604052565b60a081019081106001600160401b038211176101b157604052565b602081019081106001600160401b038211176101b157604052565b90601f801991011681019081106001600160401b038211176101b157604052565b6040519061024882610196565b565b60405190610248826101e4565b6001600160401b0381116101b157601f01601f191660200190565b92919261027e82610257565b9161028c604051938461021a565b8294818452818301116102a9578281602093846000960137010152565b600080fd5b9080601f830112156102a9578160206102c993359101610272565b90565b6001600160401b0381116101b15760051b60200190565b9080601f830112156102a9578135916020916102fe846102cc565b93604061030e604051968761021a565b818652848087019260051b850101938385116102a957858101925b85841061033a575050505050505090565b6001600160401b0384358181116102a95783019184601f1984890301126102a957845161036681610196565b898401358381116102a957888b61037f928701016102ae565b8152858401359283116102a95761039d888b809695819601016102ae565b83820152815201930192610329565b9080601f830112156102a9578135916020916103c7846102cc565b9360406103d7604051968761021a565b818652848087019260051b850101938385116102a957858101925b858410610403575050505050505090565b6001600160401b0384358181116102a95783019184601f1984890301126102a957845161042f81610196565b898401358152858401359283116102a957610451888b809695819601016102ae565b838201528152019301926103f2565b346102a95760803660031901126102a9576001600160401b036004358181116102a9576104919036906004016102ae565b6024358281116102a9576104a99036906004016102e3565b6044358381116102a9576104c19036906004016103ac565b906064359384116102a9576104dd6100199436906004016102ae565b92610fd7565b60609060031901126102a957600490565b9181601f840112156102a9578235916001600160401b0383116102a957602083818601950101116102a957565b6001600160a01b038116036102a957565b60e03660031901126102a957610547366104e3565b6001600160401b036084358181116102a9576105679036906004016104f4565b9161057360a435610521565b60c4359081116102a95761058b9036906004016104f4565b5050337f00000000000000000000000000000000000000000000000000000000000000006001600160a01b03160361061b576105ce6105c9846110e3565b611385565b9260208101358094036105e5576100199350611450565b6105ef84916110e3565b60405163309afaf360e21b815263ffffffff9190911660048201526024810191909152604490fd5b0390fd5b6040516391ac5e4f60e01b8152336004820152602490fd5b60009103126102a957565b346102a95760003660031901126102a957604080516001815260026020820152f35b346102a95760003660031901126102a957602060405160018152f35b346102a95760a03660031901126102a9576001600160401b036004358181116102a9576106ad9036906004016102ae565b6024356106b981610521565b6044358381116102a9576106d19036906004016102e3565b6064358481116102a9576106e99036906004016103ac565b916084359485116102a9576107056100199536906004016102ae565b936110ed565b63ffffffff8116036102a957565b346102a95760403660031901126102a9577f238399d427b947898edb290f5ff0f9109849b1c3ba196a42e35f00c50a54b98b6004356107578161070b565b602435906107636117b2565b63ffffffff811660005260016020528160406000205561079b604051928392836020909392919363ffffffff60408201951681520152565b0390a1005b6024359061ffff821682036102a957565b359061ffff821682036102a957565b90600182811c921680156107f0575b60208310146107da57565b634e487b7160e01b600052602260045260246000fd5b91607f16916107cf565b9060405191826000825461080d816107c0565b9081845260209460019160018116908160001461087b575060011461083c575b5050506102489250038361021a565b600090815285812095935091905b818310610863575050610248935082010138808061082d565b8554888401850152948501948794509183019161084a565b9250505061024894925060ff191682840152151560051b82010138808061082d565b60005b8381106108b05750506000910152565b81810151838201526020016108a0565b906020916108d98151809281855285808601910161089d565b601f01601f1916010190565b9060206102c99281815201906108c0565b346102a95760403660031901126102a95761096461095061094b60043561091c8161070b565b63ffffffff6109296107a0565b9116600052600260205260406000209061ffff16600052602052604060002090565b6107fa565b6040519182916020835260208301906108c0565b0390f35b346102a95760003660031901126102a9576040517f00000000000000000000000000000000000000000000000000000000000000006001600160a01b03168152602090f35b346102a95760003660031901126102a9576040517f00000000000000000000000000000000000000000000000000000000000000006001600160a01b03168152602090f35b346102a957600080600319360112610a4d57610a0c6117b2565b80546001600160a01b03198116825581906001600160a01b03167f8be0079c531659141344cd1fd0a4f28419497f9722a3daafe3b4186f6b6457e08280a380f35b80fd5b346102a95760403660031901126102a957610a6c60043561070b565b602060405160008152f35b346102a95760a03660031901126102a957610a91366104e3565b506064356001600160401b0381116102a957610ab19036906004016104f4565b50506020608435610ac181610521565b6040516001600160a01b0390911630148152f35b346102a95760003660031901126102a9576000546040516001600160a01b039091168152602090f35b346102a95760003660031901126102a957602060405160028152f35b346102a95760203660031901126102a9576004356001600160401b0381116102a957610b54610b4f60209236906004016102ae565b6117de565b15604051908152f35b346102a9576020806003193601126102a9576004356001600160401b038082116102a957366023830112156102a9578160040135918183116102a95760249060248460051b820101923684116102a957610bb56117b2565b610bbe856102cc565b94604090610bcf604051978861021a565b86526024830192602087015b868510610beb5761001988611ac6565b84358481116102a9578201606060231982360301126102a957835191610c10836101c9565b87820135610c1d8161070b565b8352610c2b604483016107b1565b8b8401526064820135928684116102a957610c4e8c94938a8695369201016102ae565b86820152815201940193610bdb565b346102a95760203660031901126102a95763ffffffff600435610c7f8161070b565b1660005260016020526020604060002054604051908152f35b346102a95760603660031901126102a957600435610cb58161070b565b610cbd6107a0565b604435906001600160401b0382116102a95761096492610ce46109509336906004016104f4565b92909161120e565b346102a95760006020366003190112610a4d57600435610d0b81610521565b610d136117b2565b6001600160a01b037f0000000000000000000000000000000000000000000000000000000000000000811691839190833b15610d865760249083604051958694859363ca5eb5e160e01b85521660048401525af18015610d8157610d75575080f35b610d7e906101b6565b80f35b610eb0565b8280fd5b346102a95760003660031901126102a9576040517f00000000000000000000000000000000000000000000000000000000000000006001600160a01b03168152602090f35b346102a95760203660031901126102a957600435610dec81610521565b610df46117b2565b6001600160a01b039081168015610e4257600080546001600160a01b03198116831782559092167f8be0079c531659141344cd1fd0a4f28419497f9722a3daafe3b4186f6b6457e08380a380f35b604051631e4fbdf760e01b815260006004820152602490fd5b346102a95760603660031901126102a9576020610e77366104e3565b63ffffffff8135610e878161070b565b166000526001825260406000205482604051920135148152f35b908160209103126102a9575190565b6040513d6000823e3d90fd5b908082519081815260208091019281808460051b8301019501936000915b848310610eea5750505050505090565b9091929394958480610f1a600193601f198682030187528a518360409180518452015191818582015201906108c0565b9801930193019194939290610eda565b92909493919460808401908452602090608082860152865180915260a08501918060a08360051b8801019801926000905b838210610f8b57505050505084610f7d91846102c99697036040860152610ebc565b9160608184039101526108c0565b90919293988380610fc8600193609f198c82030186528d519083610fb860408451908085528401906108c0565b92015190848184039101526108c0565b9b019201920190939291610f5b565b919091610feb610fe733836112c3565b1590565b6110d15760405163a15a735f60e01b8152927f00000000000000000000000000000000000000000000000000000000000000006001600160a01b0316916020908590819061103c90600483016108e5565b0381855afa938415610d81576000946110a0575b50813b156102a9576000809461107c60405197889687958694630132350d60e11b865260048601610f2a565b03925af18015610d815761108d5750565b8061109a610248926101b6565b80610633565b6110c391945060203d6020116110ca575b6110bb818361021a565b810190610ea1565b9238611050565b503d6110b1565b6040516330cd747160e01b8152600490fd5b356102c98161070b565b90916110fd61103c9493836116b7565b60405163a15a735f60e01b8152937f00000000000000000000000000000000000000000000000000000000000000006001600160a01b0316926020918691829190600483016108e5565b9061115a6020928281519485920161089d565b0190565b60209083610248939594956040519683611181899551809288808901910161089d565b840191858301370160008382015203808552018361021a565b90918060409360208452816020850152848401376000828201840152601f01601f1916010190565b63ffffffff600091168152600260205260408120600182526020526111e9604082206107fa565b908151156111f5575090565b6040519150611203826101ff565b808252602082015290565b61123c9163ffffffff61094b9216600052600260205260406000209061ffff16600052602052604060002090565b8051156112a257821561129c57600283101561126f5750610617604051928392639a6d49cd60e01b84526004840161119a565b61128261127d368585610272565b611b87565b826002116102a9576102c99260011901916002019061115e565b91505090565b506102c9913691610272565b908160209103126102a957516102c981610521565b9060018060a01b0390604051926020936112f98582816112ec818301968781519384920161089d565b810103808452018261021a565b519020604051906331a9108f60e11b825260048201528381602481867f0000000000000000000000000000000000000000000000000000000000000000165afa938415610d8157600094611352575b5050811691161490565b83929450908161137692903d1061137e575b61136e818361021a565b8101906112ae565b929038611348565b503d611364565b63ffffffff168060005260016020526040600020549081156113a5575090565b6024906040519063f6ff4fb760e01b82526004820152fd5b906113d56020919493946040845260408401906108c0565b6001600160a01b03909416910152565b91939263ffffffff906114026040936060865260608601906108c0565b6001600160a01b03909616602085015216910152565b9060609295949361143663ffffffff926080855260808501906108c0565b6001600160a01b0390971660208401521660408201520152565b9061ffff9261145e91611bca565b9394969092961660028114806116a5575b156115635750946114ab61155e9385937f7a54be9aa5cb132951f6a801e933449dca04099811cbab66c7b85d312181c0a29884602099986110ed565b6115056114bf6114ba866110e3565b6111c2565b6114c8866110e3565b90604051906114ec826114de87898d84016113bd565b03601f19810184528361021a565b6114f461023b565b9134835260008a8401523093611d76565b507fc026086844ec8d31dab78317d19011493117584600fc8f4a5c4249000cc1ae8b611541611533866110e3565b6040519182918587846113e5565b0390a15b61154e846110e3565b9060405195869501359285611418565b0390a1565b90919060011461159f575b5050509061155e6020927f7a54be9aa5cb132951f6a801e933449dca04099811cbab66c7b85d312181c0a294611545565b60405163a15a735f60e01b815292949392917f00000000000000000000000000000000000000000000000000000000000000006001600160a01b031690602084806115ed88600483016108e5565b0381855afa938415610d8157600094611684575b50813b156102a9576000809461162d604051998a9687958694630132350d60e11b865260048601610f2a565b03925af1908115610d81577f7a54be9aa5cb132951f6a801e933449dca04099811cbab66c7b85d312181c0a29460209461155e93611671575b50948193945061156e565b8061109a61167e926101b6565b38611666565b61169e91945060203d6020116110ca576110bb818361021a565b9238611601565b506116b2610fe7866117de565b61146f565b919060405160208101906116dd816116cf8488611147565b03601f19810183528261021a565b5190206001600160a01b037f000000000000000000000000000000000000000000000000000000000000000081169291833b156102a9576040516340c10f1960e01b81526001600160a01b0384166004820152602481019190915260009384908290604490829084905af18015610d815761179f575b507f000000000000000000000000000000000000000000000000000000000000000016803b15610d865761107c939483604051809681958294631e59c52960e01b8452600484016113bd565b8061109a6117ac926101b6565b38611753565b6000546001600160a01b031633036117c657565b60405163118cdaa760e01b8152336004820152602490fd5b604051906020916117fe8382816112ec818301968781519384920161089d565b519020604051636fafd76760e11b8152600481019190915260009081816024817f00000000000000000000000000000000000000000000000000000000000000006001600160a01b03165afa928315610d81578293611861575b50505051151590565b90919392503d8085843e611875818461021a565b82019181818403126118e2578051906001600160401b0382116118de570182601f820112156118e2578051916118aa83610257565b936118b8604051958661021a565b8385528184840101116118de5783949550806118d69401910161089d565b388080611858565b8580fd5b8480fd5b80518210156118fa5760209160051b010190565b634e487b7160e01b600052603260045260246000fd5b90601f811161191e57505050565b6000916000526020600020906020601f850160051c8301941061195c575b601f0160051c01915b82811061195157505050565b818155600101611945565b909250829061193c565b91909182516001600160401b0381116101b15761198d8161198784546107c0565b84611910565b602080601f83116001146119d0575081906119c19394956000926119c5575b50508160011b916000199060031b1c19161790565b9055565b0151905038806119ac565b90601f198316956119e685600052602060002090565b926000905b888210611a2357505083600195969710611a0a575b505050811b019055565b015160001960f88460031b161c19169055388080611a00565b806001859682949686015181550195019301906119eb565b6020808201908083528351809252604092604081018260408560051b8401019601946000925b858410611a72575050505050505090565b909192939495968580611ab5600193603f198682030188528b518760609163ffffffff815116845261ffff868201511686850152015191818982015201906108c0565b990194019401929594939190611a61565b9060009160005b8151811015611b5257600190611b4c6040611af481611aec85886118e6565b510151611b87565b611b4781611b0285886118e6565b5101519163ffffffff611b1586896118e6565b515116895261ffff602091600283528a2091611b31878a6118e6565b5101511661ffff16600052602052604060002090565b611966565b01611acd565b507fbe4864a8e820971c0247f5992e2da559595f7bf076a21cb5928d443d2a13b67491925061155e9060405191829182611a3b565b600361ffff60028301511603611b9a5750565b604051639a6d49cd60e01b8152602060048201529081906106179060248301906108c0565b359061024882610521565b90810160c0828203126102a957611be0826107b1565b6001600160401b039060208401358281116102a95783611c019186016102ae565b94611c0e60408601611bbf565b9460608101358481116102a95785611c279183016102e3565b9460808201358581116102a95781611c409184016103ac565b9460a08301359081116102a957611c5792016102ae565b9195946001600160a01b031693929190565b60405190611c76826101c9565b8160008152600060208201526040805191611c9083610196565b60008352600060208401520152565b80910390608082126102a95760405191611cb8836101c9565b815183526020820151906001600160401b03821682036102a9576040916020850152603f1901126102a957606060405191611cf283610196565b6040810151835201516020820152604082015290565b906020909392936040835263ffffffff81511660408401528181015160608401526080611d5c611d46604084015160a08488015260e08701906108c0565b6060840151868203603f190160a08801526108c0565b910151151560c08401526001600160a01b03909416910152565b611ddf60809492611dfb9694611d8a611c69565b506020611d978651611e73565b950191825180611e64575b50611dac85611385565b9251151592611dc8611dbc61024a565b63ffffffff9097168752565b602086015260408501526060840152151585830152565b6040518095819482936302637a4560e41b845260048401611d08565b03917f00000000000000000000000000000000000000000000000000000000000000006001600160a01b03165af1908115610d8157600091611e3b575090565b6102c9915060803d608011611e5d575b611e55818361021a565b810190611c9f565b503d611e4b565b611e6d90611e95565b38611da2565b803403611e7d5790565b6040516304fb820960e51b8152346004820152602490fd5b60405163393f876560e21b81526001600160a01b037f0000000000000000000000000000000000000000000000000000000000000000811691602081600481865afa908115610d8157600091611f76575b5016918215611f645760209160009160405190848201926323b872dd60e01b84523360248401526044830152606482015260648152611f24816101e4565b519082855af115610eb0576000513d611f5b5750803b155b611f435750565b60249060405190635274afe760e01b82526004820152fd5b60011415611f3c565b6040516329b99a9560e11b8152600490fd5b611f8f915060203d60201161137e5761136e818361021a565b38611ee656fea264697066735822122027cd3392ef8b67dd999047b6baaa2b938d3fe6e67ed519e808cba4e8a291e70e64736f6c634300081600336080806040523461007a5733156100645760008054336001600160a01b03198216811783556040519290916001600160a01b0316907f8be0079c531659141344cd1fd0a4f28419497f9722a3daafe3b4186f6b6457e09080a3610f3b90816100808239f35b631e4fbdf760e01b815260006004820152602490fd5b600080fdfe60406080815260048036101561001457600080fd5b600091823560e01c806302646a1a1461069157806310f13a8c146106355780631e59c52914610455578063304e6ade146104145780633b3b57de1461038d57806359d1d43c14610323578063715018a6146102c95780638b95dd711461027e5780638da5cb5b14610252578063a15a735f1461020c578063bc1c58d1146101d8578063df5faece146101a5578063f1cb7e061461014a5763f2fde38b146100ba57600080fd5b34610146576020366003190112610146576001600160a01b03823581811693919290849003610142576100eb610ade565b831561012c57505082546001600160a01b0319811683178455167f8be0079c531659141344cd1fd0a4f28419497f9722a3daafe3b4186f6b6457e08380a380f35b51631e4fbdf760e01b8152908101849052602490fd5b8480fd5b8280fd5b5090346101465781600319360112610146579061018f816101a194610188943581526002602052818120602435825260205220825193848092610a18565b038361083b565b519182916020835260208301906108f9565b0390f35b509034610146576020366003190112610146579061018f816101a194846101889535825260205220825193848092610a18565b509034610146576020366003190112610146579061018f816101a19461018894358152600360205220825193848092610a18565b50823461024f57602036600319011261024f578235906001600160401b03821161024f5750610243602093610248923691016108b8565b610aae565b9051908152f35b80fd5b83823461027a578160031936011261027a57905490516001600160a01b039091168152602090f35b5080fd5b50503461027a57606036600319011261027a57604435906001600160401b038211610146576102b36102c692369083016108b8565b906102bc610ade565b6024359035610c8f565b80f35b833461024f578060031936011261024f576102e2610ade565b80546001600160a01b03198116825581906001600160a01b03167f8be0079c531659141344cd1fd0a4f28419497f9722a3daafe3b4186f6b6457e08280a380f35b5090346101465781600319360112610146576024356001600160401b038111610389576101a193602084936101889561036261018f953690840161080e565b94909235815260018452208386519485938437820190815203019020825193848092610a18565b8380fd5b50903461014657602036600319011261014657906020926103c99235815260028452818120603c825284526103d0828220835194858092610a18565b038461083b565b508282519201516bffffffffffffffffffffffff199081811693601481106103ff575b505050519060601c8152f35b60140360031b82901b161691503880806103f3565b50346101465736600319011261027a57602435906001600160401b038211610146576104466102c692369083016108b8565b9061044f610ade565b35610dc6565b5082903461027a578060031936011261027a576001600160401b0390833582811161038957610487903690860161080e565b926024356001600160a01b038116929190839003610631576104a7610ade565b6104b5610243368785610872565b968787526020978189526104cb86892054610988565b61062257875280885284872091861161060f57506104f3856104ed8354610988565b836109c2565b85601f86116001146105835796858093606096959361054b83808c9d7f50f74ca45caac8020b8d891bd13ea5a2d79564986ee6a839f0d914896388322d9d91610578575b508160011b916000199060031b1c19161790565b90555b8551978689978852870152868601378383018501889052830152601f01601f19168101030190a180f35b90508401358e610537565b81875287872090601f198716885b8181106105f857509360609695937f50f74ca45caac8020b8d891bd13ea5a2d79564986ee6a839f0d914896388322d999a93899693878095106105de575b5050600183811b01905561054e565b830135600019600386901b60f8161c191690558b806105cf565b91928a600181928689013581550194019201610591565b634e487b7160e01b875260419052602486fd5b508451632bbd41a560e21b8152fd5b8580fd5b50503461027a57606036600319011261027a576001600160401b03906024358281116103895761066890369083016108b8565b604435928311610389576106826102c693369084016108b8565b9161068b610ade565b35610b0a565b50503461027a57608036600319011261027a5780356001600160401b03602435818111610142576106c590369085016107d9565b9190936044358281116107d5576106df90369083016107d9565b9290916064359182116107d1576106f89136910161080e565b939095610703610ade565b875b82811061078157505050855b8281106107405750505080610724578380f35b61073992610733913691610872565b90610dc6565b3880808380f35b8061077b610751600193868661091e565b3561077461076d61076385898961091e565b6020810190610956565b3691610872565b9088610c8f565b01610711565b806107cb6107c461079e610798600195888861091e565b80610956565b6107bc6107b2610763878b8b97969761091e565b9490923691610872565b923691610872565b908a610b0a565b01610705565b8780fd5b8680fd5b9181601f84011215610809578235916001600160401b038311610809576020808501948460051b01011161080957565b600080fd5b9181601f84011215610809578235916001600160401b038311610809576020838186019501011161080957565b90601f801991011681019081106001600160401b0382111761085c57604052565b634e487b7160e01b600052604160045260246000fd5b9291926001600160401b03821161085c576040519161089b601f8201601f19166020018461083b565b829481845281830111610809578281602093846000960137010152565b9080601f83011215610809578160206108d393359101610872565b90565b60005b8381106108e95750506000910152565b81810151838201526020016108d9565b90602091610912815180928185528580860191016108d6565b601f01601f1916010190565b91908110156109405760051b81013590603e1981360301821215610809570190565b634e487b7160e01b600052603260045260246000fd5b903590601e198136030182121561080957018035906001600160401b0382116108095760200191813603831361080957565b90600182811c921680156109b8575b60208310146109a257565b634e487b7160e01b600052602260045260246000fd5b91607f1691610997565b90601f81116109d057505050565b6000916000526020600020906020601f850160051c83019410610a0e575b601f0160051c01915b828110610a0357505050565b8181556001016109f7565b90925082906109ee565b805460009392610a2782610988565b91828252602093600191600181169081600014610a8f5750600114610a4e575b5050505050565b90939495506000929192528360002092846000945b838610610a7b57505050500101903880808080610a47565b805485870183015294019385908201610a63565b60ff19168685015250505090151560051b010191503880808080610a47565b604051610ad860208281610acb81830196878151938492016108d6565b810103808452018261083b565b51902090565b6000546001600160a01b03163303610af257565b60405163118cdaa760e01b8152336004820152602490fd5b91600090838252600160209260018452604081208460405180928851610b338184868d016108d6565b820190815203019020918351916001600160401b038311610c7b57610b6283610b5c8654610988565b866109c2565b8591601f8411600114610bef575092610bbb83610bd297947fd8c9334b1a9c2f9da342a0a2b32629c1a229b6445dad78947f674b44444a7550999794610bdf9791610be457508160011b916000199060031b1c19161790565b90555b6040519485946040865260408601906108f9565b91848303908501526108f9565b0390a2565b905084015138610537565b8482528682209291601f198516915b828210610c64575050837fd8c9334b1a9c2f9da342a0a2b32629c1a229b6445dad78947f674b44444a7550989693610bdf9693610bd2999660019410610c4b575b5050811b019055610bbe565b85015160001960f88460031b161c191690553880610c3f565b878401518555938401939288019290880190610bfe565b634e487b7160e01b81526041600452602490fd5b91906000918383526020926002845260408120838252845260408120908251906001600160401b038211610c7b57610cd182610ccb8554610988565b856109c2565b8590601f8311600114610d3f57827ffb6b36b568d5689ec98617abfd8ff0eccaade0ed49cef564581c257947852f3297969593610bdf9593610d269391610be457508160011b916000199060031b1c19161790565b90555b60408051948594855284015260408301906108f9565b90601f198316848352878320925b818110610daf575092610bdf9492600192827ffb6b36b568d5689ec98617abfd8ff0eccaade0ed49cef564581c257947852f329a99989610610d96575b5050811b019055610d29565b85015160001960f88460031b161c191690553880610d8a565b91928860018192868a015181550194019201610d4d565b9190916000928184526020600381526040852082516001600160401b038111610ef157610dfd81610df78454610988565b846109c2565b8296601f8211600114610e6f5790807fe379c1624ed7e714cc0937528a32359d69d5281337765313dba4e081b72d7578969798610e4d9391610e6457508160011b916000199060031b1c19161790565b90555b610bdf6040519282849384528301906108f9565b905085015138610537565b96601f198216838952848920985b818110610eda57509782916001937fe379c1624ed7e714cc0937528a32359d69d5281337765313dba4e081b72d757898999a10610ec1575b5050811b019055610e50565b86015160001960f88460031b161c191690553880610eb5565b868301518a55600190990198918501918501610e7d565b634e487b7160e01b87526041600452602487fdfea2646970667358221220d01c3d86a62059fa6551d287c40653902a12b9434f33a47cbd38a5897e86b56564736f6c63430008160033",
  "devdoc": {
    "details": "This contract uses a PingPong style call (A -> B -> A) using LayerZero's OApp Standard. This contract acts as B, being A OmniRegistrar.",
    "errors": {
      "NotOwner()": [
        {
          "details": "Revert with this error when the sender is not the owner of the NFT."
        }
      ],
      "OwnableInvalidOwner(address)": [
        {
          "details": "The owner is not a valid owner account. (eg. `address(0)`)"
        }
      ],
      "OwnableUnauthorizedAccount(address)": [
        {
          "details": "The caller account is not authorized to perform an operation."
        }
      ],
      "SafeERC20FailedOperation(address)": [
        {
          "details": "An operation with an ERC-20 token failed."
        }
      ]
    },
    "kind": "dev",
    "methods": {
      "allowInitializePath((uint32,bytes32,uint64))": {
        "details": "This indicates to the endpoint that the OApp has enabled msgs for this particular path to be received.This defaults to assuming if a peer has been set, its initialized. Can be overridden by the OApp if there is other logic to determine this.",
        "params": {
          "origin": "The origin information containing the source endpoint and sender address."
        },
        "returns": {
          "_0": "Whether the path has been initialized."
        }
      },
      "combineOptions(uint32,uint16,bytes)": {
        "details": "If there is an enforced lzReceive option: - {gasLimit: 200k, msg.value: 1 ether} AND a caller supplies a lzReceive option: {gasLimit: 100k, msg.value: 0.5 ether} - The resulting options will be {gasLimit: 300k, msg.value: 1.5 ether} when the message is executed on the remote lzReceive() function.This presence of duplicated options is handled off-chain in the verifier/executor.",
        "params": {
          "_eid": "The endpoint ID.",
          "_extraOptions": "Additional options passed by the caller.",
          "_msgType": "The OAPP message type."
        },
        "returns": {
          "_0": "options The combination of caller specified options AND enforced options."
        }
      },
      "constructor": {
        "details": "Constructs a new L2Registrar contract instance.",
        "params": {
          "_omniname": "The OmniName contract instance."
        }
      },
      "isComposeMsgSender((uint32,bytes32,uint64),bytes,address)": {
        "details": "_origin The origin information containing the source endpoint and sender address.  - srcEid: The source chain endpoint ID.  - sender: The sender address on the src chain.  - nonce: The nonce of the message._message The lzReceive payload.Applications can optionally choose to implement separate composeMsg senders that are NOT the bridging layer.The default sender IS the OAppReceiver implementer.",
        "params": {
          "_sender": "The sender address."
        },
        "returns": {
          "_0": "isSender Is a valid sender."
        }
      },
      "lzReceive((uint32,bytes32,uint64),bytes32,bytes,address,bytes)": {
        "details": "Entry point for receiving messages or packets from the endpoint.Entry point for receiving msg/packet from the LayerZero endpoint.",
        "params": {
          "_executor": "The address of the executor for the received message.",
          "_extraData": "Additional arbitrary data provided by the corresponding executor.",
          "_guid": "The unique identifier for the received LayerZero message.",
          "_message": "The payload of the received message.",
          "_origin": "The origin information containing the source endpoint and sender address.  - srcEid: The source chain endpoint ID.  - sender: The sender address on the src chain.  - nonce: The nonce of the message."
        }
      },
      "nextNonce(uint32,bytes32)": {
        "details": "_srcEid The source endpoint ID._sender The sender address.The path nonce starts from 1. If 0 is returned it means that there is NO nonce ordered enforcement.Is required by the off-chain executor to determine the OApp expects msg execution is ordered.This is also enforced by the OApp.By default this is NOT enabled. ie. nextNonce is hardcoded to return 0.",
        "returns": {
          "nonce": "The next nonce."
        }
      },
      "oAppVersion()": {
        "returns": {
          "receiverVersion": "The version of the OAppReceiver.sol implementation.",
          "senderVersion": "The version of the OAppSender.sol implementation."
        }
      },
      "owner()": {
        "details": "Returns the address of the current owner."
      },
      "renounceOwnership()": {
        "details": "Leaves the contract without owner. It will not be possible to call `onlyOwner` functions. Can only be called by the current owner. NOTE: Renouncing ownership will leave the contract without an owner, thereby disabling any functionality that is only available to the owner."
      },
      "setDelegate(address)": {
        "details": "Only the owner/admin of the OApp can call this function.Provides the ability for a delegate to set configs, on behalf of the OApp, directly on the Endpoint contract.",
        "params": {
          "_delegate": "The address of the delegate to be set."
        }
      },
      "setEnforcedOptions((uint32,uint16,bytes)[])": {
        "details": "Sets the enforced options for specific endpoint and message type combinations.Only the owner/admin of the OApp can call this function.Provides a way for the OApp to enforce things like paying for PreCrime, AND/OR minimum dst lzReceive gas amounts etc.These enforced options can vary as the potential options/execution on the remote may differ as per the msgType. eg. Amount of lzReceive() gas necessary to deliver a lzCompose() message adds overhead you dont want to pay if you are only making a standard LayerZero message ie. lzReceive() WITHOUT sendCompose().",
        "params": {
          "_enforcedOptions": "An array of EnforcedOptionParam structures specifying enforced options."
        }
      },
      "setPeer(uint32,bytes32)": {
        "details": "Only the owner/admin of the OApp can call this function.Indicates that the peer is trusted to send LayerZero messages to this OApp.Set this to bytes32(0) to remove the peer address.Peer is a bytes32 to accommodate non-evm chains.",
        "params": {
          "_eid": "The endpoint ID.",
          "_peer": "The address of the peer to be associated with the corresponding endpoint."
        }
      },
      "transferOwnership(address)": {
        "details": "Transfers ownership of the contract to a new account (`newOwner`). Can only be called by the current owner."
      }
    },
    "stateVariables": {
      "SEND": {
        "details": "These values are used in things like combineOptions() in OAppOptionsType3."
      }
    },
    "title": "L2Registrar contract for registering omninames from this and other blockchains.",
    "version": 1
  },
  "userdoc": {
    "events": {
      "RegisterRequestReceived(string,address,uint32,bytes32)": {
        "notice": "Emitted when a message is received from another chain."
      },
      "ReturnRegisterRequest(string,address,uint32)": {
        "notice": "Emitted when a return message is successfully sent (B -> A)."
      }
    },
    "kind": "user",
    "methods": {
      "SEND()": {
        "notice": "Message types that are used to identify the various OApp operations."
      },
      "allowInitializePath((uint32,bytes32,uint64))": {
        "notice": "Checks if the path initialization is allowed based on the provided origin."
      },
      "combineOptions(uint32,uint16,bytes)": {
        "notice": "Combines options for a given endpoint and message type."
      },
      "endpoint()": {
        "notice": "Retrieves the LayerZero endpoint associated with the OApp."
      },
      "isComposeMsgSender((uint32,bytes32,uint64),bytes,address)": {
        "notice": "Indicates whether an address is an approved composeMsg sender to the Endpoint."
      },
      "nextNonce(uint32,bytes32)": {
        "notice": "Retrieves the next nonce for a given source endpoint and sender address."
      },
      "oAppVersion()": {
        "notice": "Retrieves the OApp version information."
      },
      "omniname()": {
        "notice": "Omnichian NFT that signals subname ownership."
      },
      "peers(uint32)": {
        "notice": "Retrieves the peer (OApp) associated with a corresponding endpoint."
      },
      "setDelegate(address)": {
        "notice": "Sets the delegate address for the OApp."
      },
      "setPeer(uint32,bytes32)": {
        "notice": "Sets the peer address (OApp instance) for a corresponding endpoint."
      },
      "targetRegistry()": {
        "notice": "L2Registry instance for storing registry information."
      }
    },
    "notice": "THIS IS AN EXPERIMENTAL CONTRACT. DO NOT USE THIS CODE IN PRODUCTION.",
    "version": 1
  },
  "storageLayout": {
    "storage": [
      {
        "astId": 3534,
        "contract": "contracts/L2Registrar.sol:L2Registrar",
        "label": "_owner",
        "offset": 0,
        "slot": "0",
        "type": "t_address"
      },
      {
        "astId": 1390,
        "contract": "contracts/L2Registrar.sol:L2Registrar",
        "label": "peers",
        "offset": 0,
        "slot": "1",
        "type": "t_mapping(t_uint32,t_bytes32)"
      },
      {
        "astId": 2006,
        "contract": "contracts/L2Registrar.sol:L2Registrar",
        "label": "enforcedOptions",
        "offset": 0,
        "slot": "2",
        "type": "t_mapping(t_uint32,t_mapping(t_uint16,t_bytes_storage))"
      }
    ],
    "types": {
      "t_address": {
        "encoding": "inplace",
        "label": "address",
        "numberOfBytes": "20"
      },
      "t_bytes32": {
        "encoding": "inplace",
        "label": "bytes32",
        "numberOfBytes": "32"
      },
      "t_bytes_storage": {
        "encoding": "bytes",
        "label": "bytes",
        "numberOfBytes": "32"
      },
      "t_mapping(t_uint16,t_bytes_storage)": {
        "encoding": "mapping",
        "key": "t_uint16",
        "label": "mapping(uint16 => bytes)",
        "numberOfBytes": "32",
        "value": "t_bytes_storage"
      },
      "t_mapping(t_uint32,t_bytes32)": {
        "encoding": "mapping",
        "key": "t_uint32",
        "label": "mapping(uint32 => bytes32)",
        "numberOfBytes": "32",
        "value": "t_bytes32"
      },
      "t_mapping(t_uint32,t_mapping(t_uint16,t_bytes_storage))": {
        "encoding": "mapping",
        "key": "t_uint32",
        "label": "mapping(uint32 => mapping(uint16 => bytes))",
        "numberOfBytes": "32",
        "value": "t_mapping(t_uint16,t_bytes_storage)"
      },
      "t_uint16": {
        "encoding": "inplace",
        "label": "uint16",
        "numberOfBytes": "2"
      },
      "t_uint32": {
        "encoding": "inplace",
        "label": "uint32",
        "numberOfBytes": "4"
      }
    }
  }
}