{
  "address": "0x26aDB8B9F84d538A97AeD4dC4b20788C180Eb926",
  "abi": [
    {
      "inputs": [
        {
          "internalType": "string",
          "name": "_name",
          "type": "string"
        },
        {
          "internalType": "string",
          "name": "_symbol",
          "type": "string"
        },
        {
          "internalType": "address",
          "name": "_lzEndpoint",
          "type": "address"
        },
        {
          "internalType": "address",
          "name": "_delegate",
          "type": "address"
        }
      ],
      "stateMutability": "nonpayable",
      "type": "constructor"
    },
    {
      "inputs": [
        {
          "internalType": "address",
          "name": "sender",
          "type": "address"
        },
        {
          "internalType": "uint256",
          "name": "tokenId",
          "type": "uint256"
        },
        {
          "internalType": "address",
          "name": "owner",
          "type": "address"
        }
      ],
      "name": "ERC721IncorrectOwner",
      "type": "error"
    },
    {
      "inputs": [
        {
          "internalType": "address",
          "name": "operator",
          "type": "address"
        },
        {
          "internalType": "uint256",
          "name": "tokenId",
          "type": "uint256"
        }
      ],
      "name": "ERC721InsufficientApproval",
      "type": "error"
    },
    {
      "inputs": [
        {
          "internalType": "address",
          "name": "approver",
          "type": "address"
        }
      ],
      "name": "ERC721InvalidApprover",
      "type": "error"
    },
    {
      "inputs": [
        {
          "internalType": "address",
          "name": "operator",
          "type": "address"
        }
      ],
      "name": "ERC721InvalidOperator",
      "type": "error"
    },
    {
      "inputs": [
        {
          "internalType": "address",
          "name": "owner",
          "type": "address"
        }
      ],
      "name": "ERC721InvalidOwner",
      "type": "error"
    },
    {
      "inputs": [
        {
          "internalType": "address",
          "name": "receiver",
          "type": "address"
        }
      ],
      "name": "ERC721InvalidReceiver",
      "type": "error"
    },
    {
      "inputs": [
        {
          "internalType": "address",
          "name": "sender",
          "type": "address"
        }
      ],
      "name": "ERC721InvalidSender",
      "type": "error"
    },
    {
      "inputs": [
        {
          "internalType": "uint256",
          "name": "tokenId",
          "type": "uint256"
        }
      ],
      "name": "ERC721NonexistentToken",
      "type": "error"
    },
    {
      "inputs": [],
      "name": "InvalidDelegate",
      "type": "error"
    },
    {
      "inputs": [],
      "name": "InvalidEndpointCall",
      "type": "error"
    },
    {
      "inputs": [
        {
          "internalType": "bytes",
          "name": "options",
          "type": "bytes"
        }
      ],
      "name": "InvalidOptions",
      "type": "error"
    },
    {
      "inputs": [],
      "name": "InvalidReceiver",
      "type": "error"
    },
    {
      "inputs": [],
      "name": "LzTokenUnavailable",
      "type": "error"
    },
    {
      "inputs": [
        {
          "internalType": "uint32",
          "name": "eid",
          "type": "uint32"
        }
      ],
      "name": "NoPeer",
      "type": "error"
    },
    {
      "inputs": [
        {
          "internalType": "uint256",
          "name": "msgValue",
          "type": "uint256"
        }
      ],
      "name": "NotEnoughNative",
      "type": "error"
    },
    {
      "inputs": [
        {
          "internalType": "address",
          "name": "addr",
          "type": "address"
        }
      ],
      "name": "OnlyEndpoint",
      "type": "error"
    },
    {
      "inputs": [
        {
          "internalType": "address",
          "name": "caller",
          "type": "address"
        },
        {
          "internalType": "address",
          "name": "owner",
          "type": "address"
        }
      ],
      "name": "OnlyNFTOwner",
      "type": "error"
    },
    {
      "inputs": [
        {
          "internalType": "uint32",
          "name": "eid",
          "type": "uint32"
        },
        {
          "internalType": "bytes32",
          "name": "sender",
          "type": "bytes32"
        }
      ],
      "name": "OnlyPeer",
      "type": "error"
    },
    {
      "inputs": [],
      "name": "OnlySelf",
      "type": "error"
    },
    {
      "inputs": [
        {
          "internalType": "address",
          "name": "owner",
          "type": "address"
        }
      ],
      "name": "OwnableInvalidOwner",
      "type": "error"
    },
    {
      "inputs": [
        {
          "internalType": "address",
          "name": "account",
          "type": "address"
        }
      ],
      "name": "OwnableUnauthorizedAccount",
      "type": "error"
    },
    {
      "inputs": [
        {
          "internalType": "address",
          "name": "token",
          "type": "address"
        }
      ],
      "name": "SafeERC20FailedOperation",
      "type": "error"
    },
    {
      "inputs": [
        {
          "internalType": "bytes",
          "name": "result",
          "type": "bytes"
        }
      ],
      "name": "SimulationResult",
      "type": "error"
    },
    {
      "anonymous": false,
      "inputs": [
        {
          "indexed": true,
          "internalType": "address",
          "name": "owner",
          "type": "address"
        },
        {
          "indexed": true,
          "internalType": "address",
          "name": "approved",
          "type": "address"
        },
        {
          "indexed": true,
          "internalType": "uint256",
          "name": "tokenId",
          "type": "uint256"
        }
      ],
      "name": "Approval",
      "type": "event"
    },
    {
      "anonymous": false,
      "inputs": [
        {
          "indexed": true,
          "internalType": "address",
          "name": "owner",
          "type": "address"
        },
        {
          "indexed": true,
          "internalType": "address",
          "name": "operator",
          "type": "address"
        },
        {
          "indexed": false,
          "internalType": "bool",
          "name": "approved",
          "type": "bool"
        }
      ],
      "name": "ApprovalForAll",
      "type": "event"
    },
    {
      "anonymous": false,
      "inputs": [
        {
          "indexed": false,
          "internalType": "string",
          "name": "baseURI",
          "type": "string"
        }
      ],
      "name": "BaseURISet",
      "type": "event"
    },
    {
      "anonymous": false,
      "inputs": [
        {
          "components": [
            {
              "internalType": "uint32",
              "name": "eid",
              "type": "uint32"
            },
            {
              "internalType": "uint16",
              "name": "msgType",
              "type": "uint16"
            },
            {
              "internalType": "bytes",
              "name": "options",
              "type": "bytes"
            }
          ],
          "indexed": false,
          "internalType": "struct EnforcedOptionParam[]",
          "name": "_enforcedOptions",
          "type": "tuple[]"
        }
      ],
      "name": "EnforcedOptionSet",
      "type": "event"
    },
    {
      "anonymous": false,
      "inputs": [
        {
          "indexed": false,
          "internalType": "address",
          "name": "inspector",
          "type": "address"
        }
      ],
      "name": "MsgInspectorSet",
      "type": "event"
    },
    {
      "anonymous": false,
      "inputs": [
        {
          "indexed": true,
          "internalType": "bytes32",
          "name": "guid",
          "type": "bytes32"
        },
        {
          "indexed": false,
          "internalType": "uint32",
          "name": "srcEid",
          "type": "uint32"
        },
        {
          "indexed": true,
          "internalType": "address",
          "name": "toAddress",
          "type": "address"
        },
        {
          "indexed": false,
          "internalType": "uint256",
          "name": "tokenId",
          "type": "uint256"
        }
      ],
      "name": "ONFTReceived",
      "type": "event"
    },
    {
      "anonymous": false,
      "inputs": [
        {
          "indexed": true,
          "internalType": "bytes32",
          "name": "guid",
          "type": "bytes32"
        },
        {
          "indexed": false,
          "internalType": "uint32",
          "name": "dstEid",
          "type": "uint32"
        },
        {
          "indexed": true,
          "internalType": "address",
          "name": "fromAddress",
          "type": "address"
        },
        {
          "indexed": false,
          "internalType": "uint256",
          "name": "tokenId",
          "type": "uint256"
        }
      ],
      "name": "ONFTSent",
      "type": "event"
    },
    {
      "anonymous": false,
      "inputs": [
        {
          "indexed": true,
          "internalType": "address",
          "name": "previousOwner",
          "type": "address"
        },
        {
          "indexed": true,
          "internalType": "address",
          "name": "newOwner",
          "type": "address"
        }
      ],
      "name": "OwnershipTransferred",
      "type": "event"
    },
    {
      "anonymous": false,
      "inputs": [
        {
          "indexed": false,
          "internalType": "uint32",
          "name": "eid",
          "type": "uint32"
        },
        {
          "indexed": false,
          "internalType": "bytes32",
          "name": "peer",
          "type": "bytes32"
        }
      ],
      "name": "PeerSet",
      "type": "event"
    },
    {
      "anonymous": false,
      "inputs": [
        {
          "indexed": false,
          "internalType": "address",
          "name": "preCrimeAddress",
          "type": "address"
        }
      ],
      "name": "PreCrimeSet",
      "type": "event"
    },
    {
      "anonymous": false,
      "inputs": [
        {
          "indexed": true,
          "internalType": "address",
          "name": "from",
          "type": "address"
        },
        {
          "indexed": true,
          "internalType": "address",
          "name": "to",
          "type": "address"
        },
        {
          "indexed": true,
          "internalType": "uint256",
          "name": "tokenId",
          "type": "uint256"
        }
      ],
      "name": "Transfer",
      "type": "event"
    },
    {
      "inputs": [],
      "name": "SEND",
      "outputs": [
        {
          "internalType": "uint16",
          "name": "",
          "type": "uint16"
        }
      ],
      "stateMutability": "view",
      "type": "function"
    },
    {
      "inputs": [],
      "name": "SEND_AND_COMPOSE",
      "outputs": [
        {
          "internalType": "uint16",
          "name": "",
          "type": "uint16"
        }
      ],
      "stateMutability": "view",
      "type": "function"
    },
    {
      "inputs": [
        {
          "components": [
            {
              "internalType": "uint32",
              "name": "srcEid",
              "type": "uint32"
            },
            {
              "internalType": "bytes32",
              "name": "sender",
              "type": "bytes32"
            },
            {
              "internalType": "uint64",
              "name": "nonce",
              "type": "uint64"
            }
          ],
          "internalType": "struct Origin",
          "name": "origin",
          "type": "tuple"
        }
      ],
      "name": "allowInitializePath",
      "outputs": [
        {
          "internalType": "bool",
          "name": "",
          "type": "bool"
        }
      ],
      "stateMutability": "view",
      "type": "function"
    },
    {
      "inputs": [],
      "name": "approvalRequired",
      "outputs": [
        {
          "internalType": "bool",
          "name": "",
          "type": "bool"
        }
      ],
      "stateMutability": "pure",
      "type": "function"
    },
    {
      "inputs": [
        {
          "internalType": "address",
          "name": "to",
          "type": "address"
        },
        {
          "internalType": "uint256",
          "name": "tokenId",
          "type": "uint256"
        }
      ],
      "name": "approve",
      "outputs": [],
      "stateMutability": "nonpayable",
      "type": "function"
    },
    {
      "inputs": [
        {
          "internalType": "address",
          "name": "owner",
          "type": "address"
        }
      ],
      "name": "balanceOf",
      "outputs": [
        {
          "internalType": "uint256",
          "name": "",
          "type": "uint256"
        }
      ],
      "stateMutability": "view",
      "type": "function"
    },
    {
      "inputs": [
        {
          "internalType": "uint32",
          "name": "_eid",
          "type": "uint32"
        },
        {
          "internalType": "uint16",
          "name": "_msgType",
          "type": "uint16"
        },
        {
          "internalType": "bytes",
          "name": "_extraOptions",
          "type": "bytes"
        }
      ],
      "name": "combineOptions",
      "outputs": [
        {
          "internalType": "bytes",
          "name": "",
          "type": "bytes"
        }
      ],
      "stateMutability": "view",
      "type": "function"
    },
    {
      "inputs": [],
      "name": "endpoint",
      "outputs": [
        {
          "internalType": "contract ILayerZeroEndpointV2",
          "name": "",
          "type": "address"
        }
      ],
      "stateMutability": "view",
      "type": "function"
    },
    {
      "inputs": [
        {
          "internalType": "uint32",
          "name": "eid",
          "type": "uint32"
        },
        {
          "internalType": "uint16",
          "name": "msgType",
          "type": "uint16"
        }
      ],
      "name": "enforcedOptions",
      "outputs": [
        {
          "internalType": "bytes",
          "name": "enforcedOption",
          "type": "bytes"
        }
      ],
      "stateMutability": "view",
      "type": "function"
    },
    {
      "inputs": [
        {
          "internalType": "uint256",
          "name": "tokenId",
          "type": "uint256"
        }
      ],
      "name": "getApproved",
      "outputs": [
        {
          "internalType": "address",
          "name": "",
          "type": "address"
        }
      ],
      "stateMutability": "view",
      "type": "function"
    },
    {
      "inputs": [
        {
          "internalType": "address",
          "name": "owner",
          "type": "address"
        },
        {
          "internalType": "address",
          "name": "operator",
          "type": "address"
        }
      ],
      "name": "isApprovedForAll",
      "outputs": [
        {
          "internalType": "bool",
          "name": "",
          "type": "bool"
        }
      ],
      "stateMutability": "view",
      "type": "function"
    },
    {
      "inputs": [
        {
          "components": [
            {
              "internalType": "uint32",
              "name": "srcEid",
              "type": "uint32"
            },
            {
              "internalType": "bytes32",
              "name": "sender",
              "type": "bytes32"
            },
            {
              "internalType": "uint64",
              "name": "nonce",
              "type": "uint64"
            }
          ],
          "internalType": "struct Origin",
          "name": "",
          "type": "tuple"
        },
        {
          "internalType": "bytes",
          "name": "",
          "type": "bytes"
        },
        {
          "internalType": "address",
          "name": "_sender",
          "type": "address"
        }
      ],
      "name": "isComposeMsgSender",
      "outputs": [
        {
          "internalType": "bool",
          "name": "",
          "type": "bool"
        }
      ],
      "stateMutability": "view",
      "type": "function"
    },
    {
      "inputs": [
        {
          "internalType": "uint32",
          "name": "_eid",
          "type": "uint32"
        },
        {
          "internalType": "bytes32",
          "name": "_peer",
          "type": "bytes32"
        }
      ],
      "name": "isPeer",
      "outputs": [
        {
          "internalType": "bool",
          "name": "",
          "type": "bool"
        }
      ],
      "stateMutability": "view",
      "type": "function"
    },
    {
      "inputs": [
        {
          "components": [
            {
              "internalType": "uint32",
              "name": "srcEid",
              "type": "uint32"
            },
            {
              "internalType": "bytes32",
              "name": "sender",
              "type": "bytes32"
            },
            {
              "internalType": "uint64",
              "name": "nonce",
              "type": "uint64"
            }
          ],
          "internalType": "struct Origin",
          "name": "_origin",
          "type": "tuple"
        },
        {
          "internalType": "bytes32",
          "name": "_guid",
          "type": "bytes32"
        },
        {
          "internalType": "bytes",
          "name": "_message",
          "type": "bytes"
        },
        {
          "internalType": "address",
          "name": "_executor",
          "type": "address"
        },
        {
          "internalType": "bytes",
          "name": "_extraData",
          "type": "bytes"
        }
      ],
      "name": "lzReceive",
      "outputs": [],
      "stateMutability": "payable",
      "type": "function"
    },
    {
      "inputs": [
        {
          "components": [
            {
              "components": [
                {
                  "internalType": "uint32",
                  "name": "srcEid",
                  "type": "uint32"
                },
                {
                  "internalType": "bytes32",
                  "name": "sender",
                  "type": "bytes32"
                },
                {
                  "internalType": "uint64",
                  "name": "nonce",
                  "type": "uint64"
                }
              ],
              "internalType": "struct Origin",
              "name": "origin",
              "type": "tuple"
            },
            {
              "internalType": "uint32",
              "name": "dstEid",
              "type": "uint32"
            },
            {
              "internalType": "address",
              "name": "receiver",
              "type": "address"
            },
            {
              "internalType": "bytes32",
              "name": "guid",
              "type": "bytes32"
            },
            {
              "internalType": "uint256",
              "name": "value",
              "type": "uint256"
            },
            {
              "internalType": "address",
              "name": "executor",
              "type": "address"
            },
            {
              "internalType": "bytes",
              "name": "message",
              "type": "bytes"
            },
            {
              "internalType": "bytes",
              "name": "extraData",
              "type": "bytes"
            }
          ],
          "internalType": "struct InboundPacket[]",
          "name": "_packets",
          "type": "tuple[]"
        }
      ],
      "name": "lzReceiveAndRevert",
      "outputs": [],
      "stateMutability": "payable",
      "type": "function"
    },
    {
      "inputs": [
        {
          "components": [
            {
              "internalType": "uint32",
              "name": "srcEid",
              "type": "uint32"
            },
            {
              "internalType": "bytes32",
              "name": "sender",
              "type": "bytes32"
            },
            {
              "internalType": "uint64",
              "name": "nonce",
              "type": "uint64"
            }
          ],
          "internalType": "struct Origin",
          "name": "_origin",
          "type": "tuple"
        },
        {
          "internalType": "bytes32",
          "name": "_guid",
          "type": "bytes32"
        },
        {
          "internalType": "bytes",
          "name": "_message",
          "type": "bytes"
        },
        {
          "internalType": "address",
          "name": "_executor",
          "type": "address"
        },
        {
          "internalType": "bytes",
          "name": "_extraData",
          "type": "bytes"
        }
      ],
      "name": "lzReceiveSimulate",
      "outputs": [],
      "stateMutability": "payable",
      "type": "function"
    },
    {
      "inputs": [
        {
          "internalType": "address",
          "name": "to",
          "type": "address"
        },
        {
          "internalType": "uint256",
          "name": "tokenId",
          "type": "uint256"
        }
      ],
      "name": "mint",
      "outputs": [],
      "stateMutability": "nonpayable",
      "type": "function"
    },
    {
      "inputs": [],
      "name": "msgInspector",
      "outputs": [
        {
          "internalType": "address",
          "name": "",
          "type": "address"
        }
      ],
      "stateMutability": "view",
      "type": "function"
    },
    {
      "inputs": [],
      "name": "name",
      "outputs": [
        {
          "internalType": "string",
          "name": "",
          "type": "string"
        }
      ],
      "stateMutability": "view",
      "type": "function"
    },
    {
      "inputs": [
        {
          "internalType": "uint32",
          "name": "",
          "type": "uint32"
        },
        {
          "internalType": "bytes32",
          "name": "",
          "type": "bytes32"
        }
      ],
      "name": "nextNonce",
      "outputs": [
        {
          "internalType": "uint64",
          "name": "nonce",
          "type": "uint64"
        }
      ],
      "stateMutability": "view",
      "type": "function"
    },
    {
      "inputs": [],
      "name": "oApp",
      "outputs": [
        {
          "internalType": "address",
          "name": "",
          "type": "address"
        }
      ],
      "stateMutability": "view",
      "type": "function"
    },
    {
      "inputs": [],
      "name": "oAppVersion",
      "outputs": [
        {
          "internalType": "uint64",
          "name": "senderVersion",
          "type": "uint64"
        },
        {
          "internalType": "uint64",
          "name": "receiverVersion",
          "type": "uint64"
        }
      ],
      "stateMutability": "pure",
      "type": "function"
    },
    {
      "inputs": [],
      "name": "onftVersion",
      "outputs": [
        {
          "internalType": "bytes4",
          "name": "interfaceId",
          "type": "bytes4"
        },
        {
          "internalType": "uint64",
          "name": "version",
          "type": "uint64"
        }
      ],
      "stateMutability": "pure",
      "type": "function"
    },
    {
      "inputs": [],
      "name": "owner",
      "outputs": [
        {
          "internalType": "address",
          "name": "",
          "type": "address"
        }
      ],
      "stateMutability": "view",
      "type": "function"
    },
    {
      "inputs": [
        {
          "internalType": "uint256",
          "name": "tokenId",
          "type": "uint256"
        }
      ],
      "name": "ownerOf",
      "outputs": [
        {
          "internalType": "address",
          "name": "",
          "type": "address"
        }
      ],
      "stateMutability": "view",
      "type": "function"
    },
    {
      "inputs": [
        {
          "internalType": "uint32",
          "name": "eid",
          "type": "uint32"
        }
      ],
      "name": "peers",
      "outputs": [
        {
          "internalType": "bytes32",
          "name": "peer",
          "type": "bytes32"
        }
      ],
      "stateMutability": "view",
      "type": "function"
    },
    {
      "inputs": [],
      "name": "preCrime",
      "outputs": [
        {
          "internalType": "address",
          "name": "",
          "type": "address"
        }
      ],
      "stateMutability": "view",
      "type": "function"
    },
    {
      "inputs": [
        {
          "components": [
            {
              "internalType": "uint32",
              "name": "dstEid",
              "type": "uint32"
            },
            {
              "internalType": "bytes32",
              "name": "to",
              "type": "bytes32"
            },
            {
              "internalType": "uint256",
              "name": "tokenId",
              "type": "uint256"
            },
            {
              "internalType": "bytes",
              "name": "extraOptions",
              "type": "bytes"
            },
            {
              "internalType": "bytes",
              "name": "composeMsg",
              "type": "bytes"
            },
            {
              "internalType": "bytes",
              "name": "onftCmd",
              "type": "bytes"
            }
          ],
          "internalType": "struct SendParam",
          "name": "_sendParam",
          "type": "tuple"
        },
        {
          "internalType": "bool",
          "name": "_payInLzToken",
          "type": "bool"
        }
      ],
      "name": "quoteSend",
      "outputs": [
        {
          "components": [
            {
              "internalType": "uint256",
              "name": "nativeFee",
              "type": "uint256"
            },
            {
              "internalType": "uint256",
              "name": "lzTokenFee",
              "type": "uint256"
            }
          ],
          "internalType": "struct MessagingFee",
          "name": "msgFee",
          "type": "tuple"
        }
      ],
      "stateMutability": "view",
      "type": "function"
    },
    {
      "inputs": [],
      "name": "renounceOwnership",
      "outputs": [],
      "stateMutability": "nonpayable",
      "type": "function"
    },
    {
      "inputs": [
        {
          "internalType": "address",
          "name": "from",
          "type": "address"
        },
        {
          "internalType": "address",
          "name": "to",
          "type": "address"
        },
        {
          "internalType": "uint256",
          "name": "tokenId",
          "type": "uint256"
        }
      ],
      "name": "safeTransferFrom",
      "outputs": [],
      "stateMutability": "nonpayable",
      "type": "function"
    },
    {
      "inputs": [
        {
          "internalType": "address",
          "name": "from",
          "type": "address"
        },
        {
          "internalType": "address",
          "name": "to",
          "type": "address"
        },
        {
          "internalType": "uint256",
          "name": "tokenId",
          "type": "uint256"
        },
        {
          "internalType": "bytes",
          "name": "data",
          "type": "bytes"
        }
      ],
      "name": "safeTransferFrom",
      "outputs": [],
      "stateMutability": "nonpayable",
      "type": "function"
    },
    {
      "inputs": [
        {
          "components": [
            {
              "internalType": "uint32",
              "name": "dstEid",
              "type": "uint32"
            },
            {
              "internalType": "bytes32",
              "name": "to",
              "type": "bytes32"
            },
            {
              "internalType": "uint256",
              "name": "tokenId",
              "type": "uint256"
            },
            {
              "internalType": "bytes",
              "name": "extraOptions",
              "type": "bytes"
            },
            {
              "internalType": "bytes",
              "name": "composeMsg",
              "type": "bytes"
            },
            {
              "internalType": "bytes",
              "name": "onftCmd",
              "type": "bytes"
            }
          ],
          "internalType": "struct SendParam",
          "name": "_sendParam",
          "type": "tuple"
        },
        {
          "components": [
            {
              "internalType": "uint256",
              "name": "nativeFee",
              "type": "uint256"
            },
            {
              "internalType": "uint256",
              "name": "lzTokenFee",
              "type": "uint256"
            }
          ],
          "internalType": "struct MessagingFee",
          "name": "_fee",
          "type": "tuple"
        },
        {
          "internalType": "address",
          "name": "_refundAddress",
          "type": "address"
        }
      ],
      "name": "send",
      "outputs": [
        {
          "components": [
            {
              "internalType": "bytes32",
              "name": "guid",
              "type": "bytes32"
            },
            {
              "internalType": "uint64",
              "name": "nonce",
              "type": "uint64"
            },
            {
              "components": [
                {
                  "internalType": "uint256",
                  "name": "nativeFee",
                  "type": "uint256"
                },
                {
                  "internalType": "uint256",
                  "name": "lzTokenFee",
                  "type": "uint256"
                }
              ],
              "internalType": "struct MessagingFee",
              "name": "fee",
              "type": "tuple"
            }
          ],
          "internalType": "struct MessagingReceipt",
          "name": "msgReceipt",
          "type": "tuple"
        }
      ],
      "stateMutability": "payable",
      "type": "function"
    },
    {
      "inputs": [
        {
          "internalType": "address",
          "name": "operator",
          "type": "address"
        },
        {
          "internalType": "bool",
          "name": "approved",
          "type": "bool"
        }
      ],
      "name": "setApprovalForAll",
      "outputs": [],
      "stateMutability": "nonpayable",
      "type": "function"
    },
    {
      "inputs": [
        {
          "internalType": "string",
          "name": "_baseTokenURI",
          "type": "string"
        }
      ],
      "name": "setBaseURI",
      "outputs": [],
      "stateMutability": "nonpayable",
      "type": "function"
    },
    {
      "inputs": [
        {
          "internalType": "address",
          "name": "_delegate",
          "type": "address"
        }
      ],
      "name": "setDelegate",
      "outputs": [],
      "stateMutability": "nonpayable",
      "type": "function"
    },
    {
      "inputs": [
        {
          "components": [
            {
              "internalType": "uint32",
              "name": "eid",
              "type": "uint32"
            },
            {
              "internalType": "uint16",
              "name": "msgType",
              "type": "uint16"
            },
            {
              "internalType": "bytes",
              "name": "options",
              "type": "bytes"
            }
          ],
          "internalType": "struct EnforcedOptionParam[]",
          "name": "_enforcedOptions",
          "type": "tuple[]"
        }
      ],
      "name": "setEnforcedOptions",
      "outputs": [],
      "stateMutability": "nonpayable",
      "type": "function"
    },
    {
      "inputs": [
        {
          "internalType": "address",
          "name": "_msgInspector",
          "type": "address"
        }
      ],
      "name": "setMsgInspector",
      "outputs": [],
      "stateMutability": "nonpayable",
      "type": "function"
    },
    {
      "inputs": [
        {
          "internalType": "uint32",
          "name": "_eid",
          "type": "uint32"
        },
        {
          "internalType": "bytes32",
          "name": "_peer",
          "type": "bytes32"
        }
      ],
      "name": "setPeer",
      "outputs": [],
      "stateMutability": "nonpayable",
      "type": "function"
    },
    {
      "inputs": [
        {
          "internalType": "address",
          "name": "_preCrime",
          "type": "address"
        }
      ],
      "name": "setPreCrime",
      "outputs": [],
      "stateMutability": "nonpayable",
      "type": "function"
    },
    {
      "inputs": [
        {
          "internalType": "bytes4",
          "name": "interfaceId",
          "type": "bytes4"
        }
      ],
      "name": "supportsInterface",
      "outputs": [
        {
          "internalType": "bool",
          "name": "",
          "type": "bool"
        }
      ],
      "stateMutability": "view",
      "type": "function"
    },
    {
      "inputs": [],
      "name": "symbol",
      "outputs": [
        {
          "internalType": "string",
          "name": "",
          "type": "string"
        }
      ],
      "stateMutability": "view",
      "type": "function"
    },
    {
      "inputs": [],
      "name": "token",
      "outputs": [
        {
          "internalType": "address",
          "name": "",
          "type": "address"
        }
      ],
      "stateMutability": "view",
      "type": "function"
    },
    {
      "inputs": [
        {
          "internalType": "uint256",
          "name": "tokenId",
          "type": "uint256"
        }
      ],
      "name": "tokenURI",
      "outputs": [
        {
          "internalType": "string",
          "name": "",
          "type": "string"
        }
      ],
      "stateMutability": "view",
      "type": "function"
    },
    {
      "inputs": [
        {
          "internalType": "address",
          "name": "from",
          "type": "address"
        },
        {
          "internalType": "address",
          "name": "to",
          "type": "address"
        },
        {
          "internalType": "uint256",
          "name": "tokenId",
          "type": "uint256"
        }
      ],
      "name": "transferFrom",
      "outputs": [],
      "stateMutability": "nonpayable",
      "type": "function"
    },
    {
      "inputs": [
        {
          "internalType": "address",
          "name": "newOwner",
          "type": "address"
        }
      ],
      "name": "transferOwnership",
      "outputs": [],
      "stateMutability": "nonpayable",
      "type": "function"
    }
  ],
  "transactionHash": "0x0e801294ba0b61e9d412c72573b297c83f8711946d1a8c6d43dd4739669acac2",
  "args": [
    "Omniname",
    "omniname.eth",
    "0x1a44076050125825900e736c501f859c50fE728c",
    "0x85cdFbc4D0f672Ffb7d13A78f374330BB560FcE4"
  ],
  "numDeployments": 1,
  "solcInputHash": "e650a9f81b9e2dcc782a381dfe2cf6da",
  "bytecode": "0x60a06040908082523462000448576000620035eb80380380916200002482866200044d565b8439820191608081840312620004445780516001600160401b0392908381116200044457846200005691840162000487565b91602094858201518581116200042857906200007491830162000487565b90606062000084888301620004fd565b916001600160a01b039182916200009c9101620004fd565b169182156200042c5784546001600160a01b0319811684178655839083167f8be0079c531659141344cd1fd0a4f28419497f9722a3daafe3b4186f6b6457e08780a31680608052803b1562000428578390818951809263ca5eb5e160e01b8252600495868301528160249889925af180156200041e57620003fb575b5090845193868511620003ea576005908154956001978888811c98168015620003df575b8b891014620003cd5781908b601f998a811162000379575b50508b908983116001146200031457879262000308575b5050600019600383901b1c191690881b1782555b8451978811620002f757600654928784811c94168015620002ec575b8a851014620002db57505084821162000294575b5050859285116001146200022b5793945084929190836200021f575b50501b916000199060031b1c1916176006555b516130d890816200051382396080518181816106fa015281816110600152818161191b01528181611b7401528181611c8e015281816128d50152612f800152f35b015192503880620001cb565b6006815285812093958591601f198316915b888383106200027957505050106200025f575b505050811b01600655620001de565b015160001960f88460031b161c1916905538808062000250565b8587015188559096019594850194879350908101906200023d565b600683528783209085808901821c8301938a8a10620002d1575b01901c019085905b828110620002c55750620001af565b838155018590620002b6565b93508293620002ae565b634e487b7160e01b85526022905283fd5b93607f16936200019b565b634e487b7160e01b84526041835283fd5b0151905038806200016b565b8588528c88208b94509190601f198416898f5b82821062000361575050841162000347575b505050811b0182556200017f565b015160001960f88460031b161c1916905538808062000339565b8385015186558e979095019493840193018f62000327565b909192508588528982892091818601881c8301938610620003c3575b918c918695949301881c01915b828110620003b457508d915062000154565b8981558594508c9101620003a2565b9250819262000395565b634e487b7160e01b8652602285528286fd5b97607f16976200013c565b634e487b7160e01b83526041825282fd5b8681116200040c5788523862000118565b5060418492634e487b7160e01b835252fd5b89513d84823e3d90fd5b8380fd5b8851631e4fbdf760e01b815260048101869052602490fd5b5080fd5b600080fd5b601f909101601f19168101906001600160401b038211908210176200047157604052565b634e487b7160e01b600052604160045260246000fd5b919080601f84011215620004485782516001600160401b038111620004715760209060405192620004c283601f19601f85011601856200044d565b818452828287010111620004485760005b818110620004e957508260009394955001015290565b8581018301518482018401528201620004d3565b51906001600160a01b0382168203620004485756fe6080604052600436101561001257600080fd5b60003560e01c806301ffc9a7146102e257806306fdde03146102dd578063081812fc146102d8578063095ea7b3146102d3578063111ecdad146102ce57806313137d65146102c957806317442b70146102c45780631f5e1334146102bf57806321eb730b146102ba57806323b872dd146102b55780633400288b146102b057806340c10f19146102ab57806342842e0e146102a657806352ae2879146102105780635535d461146102a157806355f804b31461029c5780635a0dfe4d146102975780635e280f11146102925780636352211e1461028d5780636fc1b31e1461028857806370a0823114610283578063715018a61461027e5780637d25a05e1461027957806382413eac146102745780638da5cb5b1461026f57806395d89b411461026a5780639f68b96414610265578063a22cb46514610260578063a72f5dd81461025b578063b21a33e414610256578063b731ea0a14610251578063b88d4fde1461024c578063b98bd07014610247578063bb0b6a5314610242578063bc70b3541461023d578063bd815db014610238578063c6414e7b14610233578063c87b56dd1461022e578063ca5eb5e114610229578063d045a0dc14610224578063d42438851461021f578063e985e9c51461021a578063f2fde38b14610215578063fc0c546a146102105763ff7bd03d1461020b57600080fd5b611e99565b610bbc565b611e0d565b611da5565b611d35565b611bdc565b611b43565b6119a4565b611858565b611705565b6116b1565b611676565b6115aa565b611508565b611465565b611449565b611421565b611363565b61133d565b611295565b61126c565b61120e565b6111e7565b61118c565b61112f565b6110bf565b61108f565b61104a565b611002565b610eb5565b610e36565b610b94565b610b63565b610adc565b610ab7565b610943565b6108dd565b6108bb565b6106df565b610612565b61050b565b6104bc565b6103d3565b6102fe565b6001600160e01b03198116036102f957565b600080fd5b346102f95760203660031901126102f957602060043561031d816102e7565b63ffffffff60e01b166380ac58cd60e01b811490811561035b575b811561034a575b506040519015158152f35b6301ffc9a760e01b1490503861033f565b635b5e139f60e01b81149150610338565b60009103126102f957565b60005b83811061038a5750506000910152565b818101518382015260200161037a565b906020916103b381518092818552858086019101610377565b601f01601f1916010190565b9060206103d092818152019061039a565b90565b346102f9576000806003193601126104b9576040519080600554906103f782610bf7565b8085529160209160019182811690811561048c5750600114610434575b6104308661042481880382610e15565b604051918291826103bf565b0390f35b9350600584527f036b6384b5eca791c62761152d0c79bb0604c104a5fb6f4eb0703f3154bb3db05b838510610479575050505081016020016104248261043038610414565b805486860184015293820193810161045c565b90508695506104309693506020925061042494915060ff191682840152151560051b820101929338610414565b80fd5b346102f95760203660031901126102f9576004356104d9816125ab565b506000526009602052602060018060a01b0360406000205416604051908152f35b6001600160a01b038116036102f957565b346102f95760403660031901126102f957600435610528816104fa565b60243590610535826125ab565b331515806105ff575b806105d1575b6105b5576105b3926105949181906001600160a01b0385811691167f8c5be1e5ebec7d5bd14f71427d1e84f3dd0314c0f7b2291e5b200ac8c7c3b925600080a46000526009602052604060002090565b80546001600160a01b0319166001600160a01b03909216919091179055565b005b60405163a9fbf51f60e01b8152336004820152602490fd5b0390fd5b506001600160a01b0381166000908152600a6020908152604080832033845290915290205460ff1615610544565b506001600160a01b03811633141561053e565b346102f95760003660031901126102f9576004546040516001600160a01b039091168152602090f35b60609060031901126102f957600490565b9181601f840112156102f9578235916001600160401b0383116102f957602083818601950101116102f957565b600319810160e081126102f9576060136102f957600491606435916001600160401b03906084358281116102f957816106b49160040161064c565b9390939260a4356106c4816104fa565b9260c4359182116102f9576106db9160040161064c565b9091565b6106e836610679565b50929492506001600160a01b039190507f000000000000000000000000000000000000000000000000000000000000000082163381036108a357833561072d81610ace565b610736816125e6565b90602086013580920361087257505061075e6107528388612e4d565b6001600160a01b031690565b916107698188612e59565b9661077386611edf565b5061077e8885612a27565b604082116107cc575b5050506107c76107a560008051602061308383398151915294611edf565b956040519384931696836020909392919363ffffffff60408201951681520152565b0390a3005b906107f6916107f06107e06040890161261e565b926107ea89611edf565b92612e68565b91612e84565b90803b156102f957604051633e5ac80960e11b8152916000918391829084908290610826908c8a60048501612628565b03925af1801561086d57600080516020613083833981519152946107c7926107a592610854575b5094610787565b8061086161086792610db1565b8061036c565b3861084d565b612500565b61087b81610ace565b60405163309afaf360e21b815263ffffffff9190911660048201526024810191909152604490fd5b6040516391ac5e4f60e01b8152336004820152602490fd5b346102f95760003660031901126102f957604080516001815260026020820152f35b346102f95760003660031901126102f957602060405160018152f35b908160c09103126102f95790565b610941909291926040806080830195805184526001600160401b036020820151166020850152015191019060208091805184520151910152565b565b60803660031901126102f9576004356001600160401b0381116102f95761096e9036906004016108f9565b604090816023193601126102f95760643591610989836104fa565b610991611f02565b50808201356109a08335610ace565b6001600160a01b03806109b2836125ab565b163303610a64576109c282612949565b1615610a4e576109f1610430946109d88561268d565b6109e187611edf565b916109eb36611f2a565b92612858565b927f986156872b2ee0022b9585231dbbfde457f87f8a16b6c45e1a81c54c4ad8351f610a41610a21865193611edf565b855163ffffffff9091168152602081019490945233939081906040820190565b0390a35191829182610907565b6024915190637e27328960e01b82526004820152fd5b610a70604493926125ab565b9151634342715b60e11b815233600482015291166024820152fd5b60609060031901126102f957600435610aa3816104fa565b90602435610ab0816104fa565b9060443590565b346102f9576105b3610ac836610a8b565b91611f52565b63ffffffff8116036102f957565b346102f95760403660031901126102f9577f238399d427b947898edb290f5ff0f9109849b1c3ba196a42e35f00c50a54b98b600435610b1a81610ace565b60243590610b266129fb565b63ffffffff8116600052600160205281604060002055610b5e604051928392836020909392919363ffffffff60408201951681520152565b0390a1005b346102f95760403660031901126102f9576105b3600435610b83816104fa565b610b8b6129fb565b60243590612a27565b346102f9576105b3610ba536610a8b565b9060405192610bb384610ddf565b600084526121c5565b346102f95760003660031901126102f9576020604051308152f35b6024359061ffff821682036102f957565b359061ffff821682036102f957565b90600182811c92168015610c27575b6020831014610c1157565b634e487b7160e01b600052602260045260246000fd5b91607f1691610c06565b600b5460009291610c4182610bf7565b80825291602090600190818116908115610cc05750600114610c64575b50505050565b92939450600b6000527f0175b7a638427703f0dbe7bb9bbf987a2551717b34e79f33b5b1008d1fa01db9926000935b858510610cad575050506020925001019038808080610c5e565b8054858501840152938201938101610c93565b92505050602093945060ff929192191683830152151560051b01019038808080610c5e565b805460009392610cf482610bf7565b91828252602093600191600181169081600014610d5c5750600114610d1b575b5050505050565b90939495506000929192528360002092846000945b838610610d4857505050500101903880808080610d14565b805485870183015294019385908201610d30565b60ff19168685015250505090151560051b010191503880808080610d14565b634e487b7160e01b600052604160045260246000fd5b606081019081106001600160401b03821117610dac57604052565b610d7b565b6001600160401b038111610dac57604052565b604081019081106001600160401b03821117610dac57604052565b602081019081106001600160401b03821117610dac57604052565b60a081019081106001600160401b03821117610dac57604052565b90601f801991011681019081106001600160401b03821117610dac57604052565b346102f95760403660031901126102f957610430610e9a610ea1610e8e600435610e5f81610ace565b63ffffffff610e6c610bd7565b9116600052600360205260406000209061ffff16600052602052604060002090565b60405192838092610ce5565b0382610e15565b60405191829160208352602083019061039a565b346102f9576020806003193601126102f9576001600160401b036004358181116102f957610ee790369060040161064c565b91610ef06129fb565b8211610dac57610f0a82610f05600b54610bf7565b61211b565b600092601f8311600114610f785750610f3b9260009183610f6d575b50508160011b916000199060031b1c19161790565b600b555b7ff9c7803e94e0d3c02900d8a90893a6d5e90dd04d32a4cfe825520f82bf9f32f660405180610b5e816121b6565b013590503880610f26565b90601f19831693610fab600b6000527f0175b7a638427703f0dbe7bb9bbf987a2551717b34e79f33b5b1008d1fa01db990565b9281905b868210610fea5750508360019510610fd0575b505050811b01600b55610f3f565b0135600019600384901b60f8161c19169055388080610fc2565b80600184968294958701358155019501920190610faf565b346102f95760403660031901126102f957602061104060043561102481610ace565b6024359063ffffffff1660005260016020526040600020541490565b6040519015158152f35b346102f95760003660031901126102f9576040517f00000000000000000000000000000000000000000000000000000000000000006001600160a01b03168152602090f35b346102f95760203660031901126102f95760206110ad6004356125ab565b6040516001600160a01b039091168152f35b346102f95760203660031901126102f9577ff0be4f1e87349231d80c36b33f9e8639658eeaf474014dee15a3e6a4d441419760206004356110ff816104fa565b6111076129fb565b600480546001600160a01b0319166001600160a01b03929092169182179055604051908152a1005b346102f95760203660031901126102f95760043561114c816104fa565b6001600160a01b031680156111735760005260086020526020604060002054604051908152f35b6040516322718ad960e21b815260006004820152602490fd5b346102f9576000806003193601126104b9576111a66129fb565b80546001600160a01b03198116825581906001600160a01b03167f8be0079c531659141344cd1fd0a4f28419497f9722a3daafe3b4186f6b6457e08280a380f35b346102f95760403660031901126102f957611203600435610ace565b602060405160008152f35b346102f95760a03660031901126102f9576112283661063b565b506064356001600160401b0381116102f95761124890369060040161064c565b50506020608435611258816104fa565b6040516001600160a01b0390911630148152f35b346102f95760003660031901126102f9576000546040516001600160a01b039091168152602090f35b346102f9576000806003193601126104b9576040519080600654906112b982610bf7565b8085529160209160019182811690811561048c57506001146112e5576104308661042481880382610e15565b9350600684527ff652222313e28459528d920b65115c16c04f3efc82aaedc97be59f3f377c0d3f5b83851061132a575050505081016020016104248261043038610414565b805486860184015293820193810161130d565b346102f95760003660031901126102f957602060405160008152f35b801515036102f957565b346102f95760403660031901126102f957600435611380816104fa565b60243561138c81611359565b6001600160a01b03821691821561140857336000908152600a602090815260408083206001600160a01b0390941683529290522060ff1981541660ff831515161790557f17307eab39ab6107e8899845ad3d59bd9653f200f220920489ca2b5937696c31604051806107c7339482919091602081019215159052565b604051630b61174360e31b815260048101849052602490fd5b346102f95760003660031901126102f957604080516311f0c6d360e11b815260016020820152f35b346102f95760003660031901126102f957602060405160028152f35b346102f95760003660031901126102f9576002546040516001600160a01b039091168152602090f35b6040519061094182610dfa565b6001600160401b038111610dac57601f01601f191660200190565b9291926114c28261149b565b916114d06040519384610e15565b8294818452818301116102f9578281602093846000960137010152565b9080601f830112156102f9578160206103d0933591016114b6565b346102f95760803660031901126102f957600435611525816104fa565b602435611531816104fa565b606435916001600160401b0383116102f9576115546105b39336906004016114ed565b91604435916121c5565b9060206003198301126102f9576004356001600160401b03928382116102f957806023830112156102f95781600401359384116102f95760248460051b830101116102f9576024019190565b346102f9576115b83661155e565b6115c06129fb565b6001600160401b0391828211610dac578160051b92602093604091604051946115eb87840187610e15565b8552858501918401933685116102f95780925b85841061160e576105b387612ce5565b83358381116102f95782016060813603126102f95785519161162f83610d91565b813561163a81610ace565b83526116478a8301610be8565b8a84015286820135928584116102f9576116678b949385943691016114ed565b888201528152019301926115fe565b346102f95760203660031901126102f95763ffffffff60043561169881610ace565b1660005260016020526020604060002054604051908152f35b346102f95760603660031901126102f9576004356116ce81610ace565b6116d6610bd7565b604435906001600160401b0382116102f957610430926116fd610ea193369060040161064c565b929091612355565b61170e3661155e565b60005b81811061177d57604051638e9e709960e01b8152600081600481335afa801561086d576105cd9160009161175a575b50604051638351eea760e01b8152918291600483016103bf565b61177791503d806000833e61176f8183610e15565b81019061250c565b82611740565b611788818385612411565b906117ba6117b661179884611edf565b60208501359063ffffffff1660005260016020526040600020541490565b1590565b61184f576117cc610100830183612439565b926117d960e0820161246b565b906117e8610120820182612439565b959095303b156102f95760009461181e60c092604051998a9788968795633411683760e21b875260a08a01358a60048901612486565b03920135305af191821561086d5760019261183c575b505b01611711565b8061086161184992610db1565b38611834565b60019150611836565b346102f9576040806003193601126102f957600435906001600160401b0382116102f9578061188e6119179336906004016108f9565b6118fc60243561189d81611359565b6118a5611ee9565b506118af8361268d565b909335936118bc85610ace565b6118c4611ee9565b506118ce856125e6565b6118e56118d961148e565b63ffffffff9097168752565b602086015285850152606084015215156080830152565b815180948192631bb8518b60e31b83523090600484016127ea565b03817f00000000000000000000000000000000000000000000000000000000000000006001600160a01b03165afa90811561086d5761043092600092611975575b505191829182815181526020918201519181019190915260400190565b816119969293503d841161199d575b61198e8183610e15565b810190612de3565b9038611958565b503d611984565b346102f95760203660031901126102f9576004356119c1816125ab565b506040516119d281610e9a81610c31565b805115611b2957600091807a184f03e93ff9f4daa797ed6e38ed64bf6a1f0100000000000000008181811015611b1b575b50506d04ee2d6d415b85acef810000000080831015611b0c575b50662386f26fc1000080831015611afd575b506305f5e10080831015611aee575b5061271080831015611adf575b506064821015611acf575b600a80921015611ac5575b600190816021611a7360018801612df7565b96870101905b611a8f575b50505050610430916104249161256a565b600019019083906f181899199a1a9b1b9c1cb0b131b232b360811b8282061a835304918215611ac057919082611a79565b611a7e565b9260010192611a61565b9290606460029104910192611a56565b60049194920491019238611a4b565b60089194920491019238611a3e565b60109194920491019238611a2f565b60209194920491019238611a1d565b604095500491503880611a03565b5050610430604051611b3a81610ddf565b60008152610424565b346102f957600060203660031901126104b957600435611b62816104fa565b611b6a6129fb565b6001600160a01b037f0000000000000000000000000000000000000000000000000000000000000000811691839190833b15611bd85760249083604051958694859363ca5eb5e160e01b85521660048401525af1801561086d57611bcc575080f35b611bd590610db1565b80f35b8280fd5b611be536610679565b5050509290303303611d2357611bfe6107528583612e4d565b93611c098183612e59565b91611c1384611edf565b50611c1e8387612a27565b60408211611c6d575b5050611c4160008051602061308383398151915292611edf565b6040805163ffffffff909216825260208201929092526001600160a01b039094169390819081016107c7565b90611c8b916107f0611c816040870161261e565b926107ea87611edf565b917f00000000000000000000000000000000000000000000000000000000000000006001600160a01b0316803b156102f957604051633e5ac80960e11b8152936000918591829084908290611ce5908b8d60048501612628565b03925af190811561086d5760008051602061308383398151915293611c4192611d10575b5092611c27565b80610861611d1d92610db1565b38611d09565b60405163029a949d60e31b8152600490fd5b346102f95760203660031901126102f9577fd48d879cef83a1c0bdda516f27b13ddb1b3f8bbac1c9e1511bb2a659c24277606020600435611d75816104fa565b611d7d6129fb565b600280546001600160a01b0319166001600160a01b03929092169182179055604051908152a1005b346102f95760403660031901126102f957602060ff611e01600435611dc9816104fa565b60243590611dd6826104fa565b60018060a01b0316600052600a845260406000209060018060a01b0316600052602052604060002090565b54166040519015158152f35b346102f95760203660031901126102f957600435611e2a816104fa565b611e326129fb565b6001600160a01b039081168015611e8057600080546001600160a01b03198116831782559092167f8be0079c531659141344cd1fd0a4f28419497f9722a3daafe3b4186f6b6457e08380a380f35b604051631e4fbdf760e01b815260006004820152602490fd5b346102f95760603660031901126102f9576020611eb53661063b565b63ffffffff8135611ec581610ace565b166000526001825260406000205482604051920135148152f35b356103d081610ace565b60405190611ef682610dc4565b60006020838281520152565b60405190611f0f82610d91565b8160008152600060208201526040611f25611ee9565b910152565b60409060231901126102f95760405190611f4382610dc4565b60243582526044356020830152565b90916001600160a01b038084169283156120eb5782600094818652600760205260409684888820541696879133151580612047575b5090611fe77fddf252ad1be2c89b69c2b068fc378daa952ba7f163c4a11628f55a4df523b3ef9284612019575b6001600160a01b038116600090815260086020526040902060018154019055610594876000526007602052604060002090565b80a41692838303611ff85750505050565b6064945051926364283d7b60e01b8452600484015260248301526044820152fd5b61202287612e29565b6001600160a01b03851660009081526008602052604090208054600019019055611fb4565b919394509150806120a2575b1561206357859291879138611f87565b878688612083579051637e27328960e01b81526004810191909152602490fd5b905163177e802f60e01b81523360048201526024810191909152604490fd5b5033871480156120c8575b80612053575085825260096020523385898420541614612053565b50868252600a60209081528883203360009081529152604090205460ff166120ad565b604051633250574960e11b815260006004820152602490fd5b81811061210f575050565b60008155600101612104565b90601f8211612128575050565b61094191600b6000527f0175b7a638427703f0dbe7bb9bbf987a2551717b34e79f33b5b1008d1fa01db9906020601f840160051c83019310612172575b601f0160051c0190612104565b9091508190612165565b9190601f811161218b57505050565b610941926000526020600020906020601f840160051c8301931061217257601f0160051c0190612104565b60206103d09181815201610c31565b919290926121d4818585611f52565b833b6121e05750505050565b612205916020916040519384928392630a85bd0160e11b978885523360048601612b11565b038160006001600160a01b0388165af160009181612299575b5061225d578261222c612b42565b805191908261225657604051633250574960e11b81526001600160a01b0383166004820152602490fd5b9050602001fd5b6001600160e01b03191603612276575038808080610c5e565b604051633250574960e11b81526001600160a01b03919091166004820152602490fd5b6122bc91925060203d6020116122c3575b6122b48183610e15565b810190612afc565b903861221e565b503d6122aa565b90929192836002116102f95783116102f957600201916001190190565b6020908361094193959495604051968361230a8995518092888089019101610377565b8401918583013701600083820152038085520183610e15565b908060209392818452848401376000828201840152601f01601f1916010190565b9160206103d0938181520191612323565b610e8e610e9a9263ffffffff61238a939795969716600052600360205260406000209061ffff16600052602052604060002090565b8051156123ed5783156123e75760028410156123be5750506105cd604051928392639a6d49cd60e01b845260048401612344565b9092806123e1916103d0946123dc6123d73684846114b6565b612dab565b6122ca565b916122e7565b92509050565b5091906103d09136916114b6565b634e487b7160e01b600052603260045260246000fd5b91908110156124345760051b8101359061013e19813603018212156102f9570190565b6123fb565b903590601e19813603018212156102f957018035906001600160401b0382116102f9576020019181360383136102f957565b356103d0816104fa565b6001600160401b038116036102f957565b9290936124e2926001600160401b0360406103d09a98999763ffffffff81356124ae81610ace565b1688526020810135602089015201356124c681612475565b166040860152606085015260e0608085015260e0840191612323565b6001600160a01b0390941660a082015280840360c090910152612323565b6040513d6000823e3d90fd5b6020818303126102f9578051906001600160401b0382116102f9570181601f820112156102f957805161253e8161149b565b9261254c6040519485610e15565b818452602082840101116102f9576103d09160208085019101610377565b602061094191939293604051948161258b8793518092868087019101610377565b820161259f82518093868085019101610377565b01038085520183610e15565b6000818152600760205260409020546001600160a01b03169081156125ce575090565b60249060405190637e27328960e01b82526004820152fd5b63ffffffff16806000526001602052604060002054908115612606575090565b6024906040519063f6ff4fb760e01b82526004820152fd5b356103d081612475565b6103d0939260809260018060a01b03168252602082015260006040820152816060820152019061039a565b908160209103126102f957516103d081611359565b909161267f6103d09360408452604084019061039a565b91602081840391015261039a565b602081013591821561276e576126c36126ea936126b76126b06080860186612439565b36916114b6565b90604085013590612edc565b9390928394600014612766576002905b6116fd6126df82611edf565b916060810190612439565b60045490926001600160a01b0390911690838261270657505050565b60405163043a78eb60e01b81529260209284928391829161272a9160048401612668565b03915afa801561086d5761273b5750565b61275c9060203d60201161275f575b6127548183610e15565b810190612653565b50565b503d61274a565b6001906126d3565b604051631e4ec46b60e01b8152600490fd5b91908260409103126102f95760405161279881610dc4565b6020808294805184520151910152565b906080828203126102f9576127e29060408051936127c585610d91565b8051855260208101516127d781612475565b602086015201612780565b604082015290565b906020909392936040835263ffffffff8151166040840152818101516060840152608061283e612828604084015160a08488015260e087019061039a565b6060840151868203603f190160a088015261039a565b910151151560c08401526001600160a01b03909416910152565b6128b5608094926128d1969461286c611f02565b5060206128798651612f47565b95019182518061293a575b5061288e856125e6565b925115159261289e6118d961148e565b602086015260408501526060840152151585830152565b6040518095819482936302637a4560e41b8452600484016127ea565b03917f00000000000000000000000000000000000000000000000000000000000000006001600160a01b03165af190811561086d57600091612911575090565b6103d0915060803d608011612933575b61292b8183610e15565b8101906127a8565b503d612921565b61294390612f69565b38612884565b6000818152600760205260409020546001600160a01b031690816129b4575b61297c816000526007602052604060002090565b80546001600160a01b03191690556000827fddf252ad1be2c89b69c2b068fc378daa952ba7f163c4a11628f55a4df523b3ef8280a490565b6129c8816000526009602052604060002090565b80546001600160a01b03191690556001600160a01b03821660009081526008602052604090208054600019019055612968565b6000546001600160a01b03163303612a0f57565b60405163118cdaa760e01b8152336004820152602490fd5b906001600160a01b038083169081156120eb5782600052600760205260406000205416612a8a8115159485612ace575b6001600160a01b038116600090815260086020526040902060018154019055610594856000526007602052604060002090565b7fddf252ad1be2c89b69c2b068fc378daa952ba7f163c4a11628f55a4df523b3ef600080a4612ab557565b6040516339e3563760e11b815260006004820152602490fd5b612ad785612e29565b6001600160a01b03831660009081526008602052604090208054600019019055612a57565b908160209103126102f957516103d0816102e7565b6001600160a01b0391821681529116602082015260408101919091526080606082018190526103d09291019061039a565b3d15612b6d573d90612b538261149b565b91612b616040519384610e15565b82523d6000602084013e565b606090565b80518210156124345760209160051b010190565b91909182516001600160401b038111610dac57612bad81612ba78454610bf7565b8461217c565b602080601f8311600114612bef57508190612be0939495600092612be45750508160011b916000199060031b1c19161790565b9055565b015190503880610f26565b90601f19831695612c0585600052602060002090565b926000905b888210612c4257505083600195969710612c29575b505050811b019055565b015160001960f88460031b161c19169055388080612c1f565b80600185968294968601518155019501930190612c0a565b6020808201908083528351809252604092604081018260408560051b8401019601946000925b858410612c91575050505050505090565b909192939495968580612cd4600193603f198682030188528b518760609163ffffffff815116845261ffff8682015116868501520151918189820152019061039a565b990194019401929594939190612c80565b9060009160005b8151811015612d7157600190612d6b6040612d1381612d0b8588612b72565b510151612dab565b612d6681612d218588612b72565b5101519163ffffffff612d348689612b72565b515116895261ffff602091600383528a2091612d50878a612b72565b5101511661ffff16600052602052604060002090565b612b86565b01612cec565b507fbe4864a8e820971c0247f5992e2da559595f7bf076a21cb5928d443d2a13b674919250612da69060405191829182612c5a565b0390a1565b600361ffff60028301511603612dbe5750565b604051639a6d49cd60e01b8152602060048201529081906105cd90602483019061039a565b906040828203126102f9576103d091612780565b90612e018261149b565b612e0e6040519182610e15565b8281528092612e1f601f199161149b565b0190602036910137565b612e3d906000526009602052604060002090565b80546001600160a01b0319169055565b906020116102f9573590565b906040116102f9576020013590565b90806040116102f9576103d0913691603f1901906040016114b6565b602c906103d092936040519485926001600160401b0360c01b9060c01b16602084015263ffffffff60e01b9060e01b166028830152612ecc8151809260208686019101610377565b810103600c810184520182610e15565b82511580159390612f2a57612f279160809160405194859260208401526040830152336060830152612f178151809260208686019101610377565b8101036060810184520182610e15565b91565b5090604051916020830152604082015260408152612f2781610d91565b803403612f515790565b6040516304fb820960e51b8152346004820152602490fd5b60405163393f876560e21b81526001600160a01b037f00000000000000000000000000000000000000000000000000000000000000008116926020929091908381600481885afa90811561086d5760009161304c575b501692831561303a5760009160405190848201926323b872dd60e01b84523360248401526044830152606482015260648152612ffa81610dfa565b519082855af115612500576000513d6130315750803b155b6130195750565b60249060405190635274afe760e01b82526004820152fd5b60011415613012565b6040516329b99a9560e11b8152600490fd5b90508381813d831161307b575b6130638183610e15565b810103126102f95751613075816104fa565b38612fbf565b503d61305956fe7883fa30ea56937810e36990b0bbb8d629d0cf59f68baf8431ff657cebe7eef5a26469706673582212208eddb33725ca777d84ef1c98dcec6fbdc6293894fbc58b4241254fb92afb167464736f6c63430008160033",
  "devdoc": {
    "errors": {
      "ERC721IncorrectOwner(address,uint256,address)": [
        {
          "details": "Indicates an error related to the ownership over a particular token. Used in transfers.",
          "params": {
            "owner": "Address of the current owner of a token.",
            "sender": "Address whose tokens are being transferred.",
            "tokenId": "Identifier number of a token."
          }
        }
      ],
      "ERC721InsufficientApproval(address,uint256)": [
        {
          "details": "Indicates a failure with the `operator`s approval. Used in transfers.",
          "params": {
            "operator": "Address that may be allowed to operate on tokens without being their owner.",
            "tokenId": "Identifier number of a token."
          }
        }
      ],
      "ERC721InvalidApprover(address)": [
        {
          "details": "Indicates a failure with the `approver` of a token to be approved. Used in approvals.",
          "params": {
            "approver": "Address initiating an approval operation."
          }
        }
      ],
      "ERC721InvalidOperator(address)": [
        {
          "details": "Indicates a failure with the `operator` to be approved. Used in approvals.",
          "params": {
            "operator": "Address that may be allowed to operate on tokens without being their owner."
          }
        }
      ],
      "ERC721InvalidOwner(address)": [
        {
          "details": "Indicates that an address can't be an owner. For example, `address(0)` is a forbidden owner in ERC-20. Used in balance queries.",
          "params": {
            "owner": "Address of the current owner of a token."
          }
        }
      ],
      "ERC721InvalidReceiver(address)": [
        {
          "details": "Indicates a failure with the token `receiver`. Used in transfers.",
          "params": {
            "receiver": "Address to which tokens are being transferred."
          }
        }
      ],
      "ERC721InvalidSender(address)": [
        {
          "details": "Indicates a failure with the token `sender`. Used in transfers.",
          "params": {
            "sender": "Address whose tokens are being transferred."
          }
        }
      ],
      "ERC721NonexistentToken(uint256)": [
        {
          "details": "Indicates a `tokenId` whose `owner` is the zero address.",
          "params": {
            "tokenId": "Identifier number of a token."
          }
        }
      ],
      "OwnableInvalidOwner(address)": [
        {
          "details": "The owner is not a valid owner account. (eg. `address(0)`)"
        }
      ],
      "OwnableUnauthorizedAccount(address)": [
        {
          "details": "The caller account is not authorized to perform an operation."
        }
      ],
      "SafeERC20FailedOperation(address)": [
        {
          "details": "An operation with an ERC-20 token failed."
        }
      ]
    },
    "events": {
      "Approval(address,address,uint256)": {
        "details": "Emitted when `owner` enables `approved` to manage the `tokenId` token."
      },
      "ApprovalForAll(address,address,bool)": {
        "details": "Emitted when `owner` enables or disables (`approved`) `operator` to manage all of its assets."
      },
      "PreCrimeSet(address)": {
        "details": "Emitted when the preCrime contract address is set.",
        "params": {
          "preCrimeAddress": "The address of the preCrime contract."
        }
      },
      "Transfer(address,address,uint256)": {
        "details": "Emitted when `tokenId` token is transferred from `from` to `to`."
      }
    },
    "kind": "dev",
    "methods": {
      "allowInitializePath((uint32,bytes32,uint64))": {
        "details": "This indicates to the endpoint that the OApp has enabled msgs for this particular path to be received.This defaults to assuming if a peer has been set, its initialized. Can be overridden by the OApp if there is other logic to determine this.",
        "params": {
          "origin": "The origin information containing the source endpoint and sender address."
        },
        "returns": {
          "_0": "Whether the path has been initialized."
        }
      },
      "approvalRequired()": {
        "details": "In the case of ONFT where the contract IS the token, approval is NOT required.",
        "returns": {
          "_0": "requiresApproval Needs approval of the underlying token implementation."
        }
      },
      "approve(address,uint256)": {
        "details": "See {IERC721-approve}."
      },
      "balanceOf(address)": {
        "details": "See {IERC721-balanceOf}."
      },
      "combineOptions(uint32,uint16,bytes)": {
        "details": "If there is an enforced lzReceive option: - {gasLimit: 200k, msg.value: 1 ether} AND a caller supplies a lzReceive option: {gasLimit: 100k, msg.value: 0.5 ether} - The resulting options will be {gasLimit: 300k, msg.value: 1.5 ether} when the message is executed on the remote lzReceive() function.This presence of duplicated options is handled off-chain in the verifier/executor.",
        "params": {
          "_eid": "The endpoint ID.",
          "_extraOptions": "Additional options passed by the caller.",
          "_msgType": "The OAPP message type."
        },
        "returns": {
          "_0": "options The combination of caller specified options AND enforced options."
        }
      },
      "getApproved(uint256)": {
        "details": "See {IERC721-getApproved}."
      },
      "isApprovedForAll(address,address)": {
        "details": "See {IERC721-isApprovedForAll}."
      },
      "isComposeMsgSender((uint32,bytes32,uint64),bytes,address)": {
        "details": "_origin The origin information containing the source endpoint and sender address.  - srcEid: The source chain endpoint ID.  - sender: The sender address on the src chain.  - nonce: The nonce of the message._message The lzReceive payload.Applications can optionally choose to implement separate composeMsg senders that are NOT the bridging layer.The default sender IS the OAppReceiver implementer.",
        "params": {
          "_sender": "The sender address."
        },
        "returns": {
          "_0": "isSender Is a valid sender."
        }
      },
      "isPeer(uint32,bytes32)": {
        "details": "Check if the peer is considered 'trusted' by the OApp.Enables OAppPreCrimeSimulator to check whether a potential Inbound Packet is from a trusted source.",
        "params": {
          "_eid": "The endpoint ID to check.",
          "_peer": "The peer to check."
        },
        "returns": {
          "_0": "Whether the peer passed is considered 'trusted' by the OApp."
        }
      },
      "lzReceive((uint32,bytes32,uint64),bytes32,bytes,address,bytes)": {
        "details": "Entry point for receiving messages or packets from the endpoint.Entry point for receiving msg/packet from the LayerZero endpoint.",
        "params": {
          "_executor": "The address of the executor for the received message.",
          "_extraData": "Additional arbitrary data provided by the corresponding executor.",
          "_guid": "The unique identifier for the received LayerZero message.",
          "_message": "The payload of the received message.",
          "_origin": "The origin information containing the source endpoint and sender address.  - srcEid: The source chain endpoint ID.  - sender: The sender address on the src chain.  - nonce: The nonce of the message."
        }
      },
      "lzReceiveAndRevert(((uint32,bytes32,uint64),uint32,address,bytes32,uint256,address,bytes,bytes)[])": {
        "details": "Interface for pre-crime simulations. Always reverts at the end with the simulation results.WARNING: MUST revert at the end with the simulation results.Gives the preCrime implementation the ability to mock sending packets to the lzReceive function, WITHOUT actually executing them.",
        "params": {
          "_packets": "An array of InboundPacket objects representing received packets to be delivered."
        }
      },
      "lzReceiveSimulate((uint32,bytes32,uint64),bytes32,bytes,address,bytes)": {
        "details": "Is effectively an internal function because msg.sender must be address(this). Allows resetting the call stack for 'internal' calls.",
        "params": {
          "_executor": "The executor address for the packet.",
          "_extraData": "Additional data for the packet.",
          "_guid": "The unique identifier of the packet.",
          "_message": "The message payload of the packet.",
          "_origin": "The origin information containing the source endpoint and sender address.  - srcEid: The source chain endpoint ID.  - sender: The sender address on the src chain.  - nonce: The nonce of the message."
        }
      },
      "name()": {
        "details": "See {IERC721Metadata-name}."
      },
      "nextNonce(uint32,bytes32)": {
        "details": "_srcEid The source endpoint ID._sender The sender address.The path nonce starts from 1. If 0 is returned it means that there is NO nonce ordered enforcement.Is required by the off-chain executor to determine the OApp expects msg execution is ordered.This is also enforced by the OApp.By default this is NOT enabled. ie. nextNonce is hardcoded to return 0.",
        "returns": {
          "nonce": "The next nonce."
        }
      },
      "oApp()": {
        "details": "Retrieves the address of the OApp contract.The simulator contract is the base contract for the OApp by default.If the simulator is a separate contract, override this function.",
        "returns": {
          "_0": "The address of the OApp contract."
        }
      },
      "oAppVersion()": {
        "returns": {
          "receiverVersion": "The version of the OAppReceiver.sol implementation.",
          "senderVersion": "The version of the OAppSender.sol implementation."
        }
      },
      "onftVersion()": {
        "details": "version: Indicates a cross-chain compatible msg encoding with other ONFTs.If a new feature is added to the ONFT cross-chain msg encoding, the version will be incremented.ie. localONFT version(x,1) CAN send messages to remoteONFT version(x,1)",
        "returns": {
          "interfaceId": "The interface ID (0x23e18da6).",
          "version": "The version."
        }
      },
      "owner()": {
        "details": "Returns the address of the current owner."
      },
      "ownerOf(uint256)": {
        "details": "See {IERC721-ownerOf}."
      },
      "quoteSend((uint32,bytes32,uint256,bytes,bytes,bytes),bool)": {
        "details": "MessagingFee: LayerZero msg fee  - nativeFee: The native fee.  - lzTokenFee: The lzToken fee.",
        "params": {
          "_payInLzToken": "Flag indicating whether the caller is paying in the LZ token.",
          "_sendParam": "The parameters for the send() operation."
        },
        "returns": {
          "msgFee": "fee The calculated LayerZero messaging fee from the send() operation."
        }
      },
      "renounceOwnership()": {
        "details": "Leaves the contract without owner. It will not be possible to call `onlyOwner` functions. Can only be called by the current owner. NOTE: Renouncing ownership will leave the contract without an owner, thereby disabling any functionality that is only available to the owner."
      },
      "safeTransferFrom(address,address,uint256)": {
        "details": "See {IERC721-safeTransferFrom}."
      },
      "safeTransferFrom(address,address,uint256,bytes)": {
        "details": "See {IERC721-safeTransferFrom}."
      },
      "send((uint32,bytes32,uint256,bytes,bytes,bytes),(uint256,uint256),address)": {
        "details": "MessagingReceipt: LayerZero msg receipt  - guid: The unique identifier for the sent message.  - nonce: The nonce of the sent message.  - fee: The LayerZero fee incurred for the message.",
        "params": {
          "_fee": "The fee information supplied by the caller.      - nativeFee: The native fee.      - lzTokenFee: The lzToken fee.",
          "_refundAddress": "The address to receive any excess funds from fees etc. on the src.",
          "_sendParam": "The parameters for the send operation."
        },
        "returns": {
          "msgReceipt": "receipt The LayerZero messaging receipt from the send() operation."
        }
      },
      "setApprovalForAll(address,bool)": {
        "details": "See {IERC721-setApprovalForAll}."
      },
      "setDelegate(address)": {
        "details": "Only the owner/admin of the OApp can call this function.Provides the ability for a delegate to set configs, on behalf of the OApp, directly on the Endpoint contract.",
        "params": {
          "_delegate": "The address of the delegate to be set."
        }
      },
      "setEnforcedOptions((uint32,uint16,bytes)[])": {
        "details": "Sets the enforced options for specific endpoint and message type combinations.Only the owner/admin of the OApp can call this function.Provides a way for the OApp to enforce things like paying for PreCrime, AND/OR minimum dst lzReceive gas amounts etc.These enforced options can vary as the potential options/execution on the remote may differ as per the msgType. eg. Amount of lzReceive() gas necessary to deliver a lzCompose() message adds overhead you dont want to pay if you are only making a standard LayerZero message ie. lzReceive() WITHOUT sendCompose().",
        "params": {
          "_enforcedOptions": "An array of EnforcedOptionParam structures specifying enforced options."
        }
      },
      "setMsgInspector(address)": {
        "details": "This is an optional contract that can be used to inspect both 'message' and 'options'.Set it to address(0) to disable it, or set it to a contract address to enable it.",
        "params": {
          "_msgInspector": "The address of the message inspector."
        }
      },
      "setPeer(uint32,bytes32)": {
        "details": "Only the owner/admin of the OApp can call this function.Indicates that the peer is trusted to send LayerZero messages to this OApp.Set this to bytes32(0) to remove the peer address.Peer is a bytes32 to accommodate non-evm chains.",
        "params": {
          "_eid": "The endpoint ID.",
          "_peer": "The address of the peer to be associated with the corresponding endpoint."
        }
      },
      "setPreCrime(address)": {
        "details": "Sets the preCrime contract address.",
        "params": {
          "_preCrime": "The address of the preCrime contract."
        }
      },
      "supportsInterface(bytes4)": {
        "details": "See {IERC165-supportsInterface}."
      },
      "symbol()": {
        "details": "See {IERC721Metadata-symbol}."
      },
      "tokenURI(uint256)": {
        "details": "See {IERC721Metadata-tokenURI}."
      },
      "transferFrom(address,address,uint256)": {
        "details": "See {IERC721-transferFrom}."
      },
      "transferOwnership(address)": {
        "details": "Transfers ownership of the contract to a new account (`newOwner`). Can only be called by the current owner."
      }
    },
    "version": 1
  },
  "userdoc": {
    "kind": "user",
    "methods": {
      "allowInitializePath((uint32,bytes32,uint64))": {
        "notice": "Checks if the path initialization is allowed based on the provided origin."
      },
      "approvalRequired()": {
        "notice": "Indicates whether the ONFT721 contract requires approval of the 'token()' to send."
      },
      "combineOptions(uint32,uint16,bytes)": {
        "notice": "Combines options for a given endpoint and message type."
      },
      "endpoint()": {
        "notice": "Retrieves the LayerZero endpoint associated with the OApp."
      },
      "isComposeMsgSender((uint32,bytes32,uint64),bytes,address)": {
        "notice": "Indicates whether an address is an approved composeMsg sender to the Endpoint."
      },
      "nextNonce(uint32,bytes32)": {
        "notice": "Retrieves the next nonce for a given source endpoint and sender address."
      },
      "oAppVersion()": {
        "notice": "Retrieves the OApp version information."
      },
      "onftVersion()": {
        "notice": "Retrieves interfaceID and the version of the ONFT."
      },
      "peers(uint32)": {
        "notice": "Retrieves the peer (OApp) associated with a corresponding endpoint."
      },
      "quoteSend((uint32,bytes32,uint256,bytes,bytes,bytes),bool)": {
        "notice": "Provides a quote for the send() operation."
      },
      "send((uint32,bytes32,uint256,bytes,bytes,bytes),(uint256,uint256),address)": {
        "notice": "Executes the send() operation."
      },
      "setDelegate(address)": {
        "notice": "Sets the delegate address for the OApp."
      },
      "setMsgInspector(address)": {
        "notice": "Sets the message inspector address for the OFT."
      },
      "setPeer(uint32,bytes32)": {
        "notice": "Sets the peer address (OApp instance) for a corresponding endpoint."
      },
      "token()": {
        "notice": "Retrieves the address of the underlying ERC721 implementation (ie. this contract)."
      }
    },
    "version": 1
  },
  "storageLayout": {
    "storage": [
      {
        "astId": 3534,
        "contract": "contracts/OmniName.sol:OmniName",
        "label": "_owner",
        "offset": 0,
        "slot": "0",
        "type": "t_address"
      },
      {
        "astId": 1390,
        "contract": "contracts/OmniName.sol:OmniName",
        "label": "peers",
        "offset": 0,
        "slot": "1",
        "type": "t_mapping(t_uint32,t_bytes32)"
      },
      {
        "astId": 2166,
        "contract": "contracts/OmniName.sol:OmniName",
        "label": "preCrime",
        "offset": 0,
        "slot": "2",
        "type": "t_address"
      },
      {
        "astId": 2006,
        "contract": "contracts/OmniName.sol:OmniName",
        "label": "enforcedOptions",
        "offset": 0,
        "slot": "3",
        "type": "t_mapping(t_uint32,t_mapping(t_uint16,t_bytes_storage))"
      },
      {
        "astId": 2929,
        "contract": "contracts/OmniName.sol:OmniName",
        "label": "msgInspector",
        "offset": 0,
        "slot": "4",
        "type": "t_address"
      },
      {
        "astId": 4422,
        "contract": "contracts/OmniName.sol:OmniName",
        "label": "_name",
        "offset": 0,
        "slot": "5",
        "type": "t_string_storage"
      },
      {
        "astId": 4424,
        "contract": "contracts/OmniName.sol:OmniName",
        "label": "_symbol",
        "offset": 0,
        "slot": "6",
        "type": "t_string_storage"
      },
      {
        "astId": 4428,
        "contract": "contracts/OmniName.sol:OmniName",
        "label": "_owners",
        "offset": 0,
        "slot": "7",
        "type": "t_mapping(t_uint256,t_address)"
      },
      {
        "astId": 4432,
        "contract": "contracts/OmniName.sol:OmniName",
        "label": "_balances",
        "offset": 0,
        "slot": "8",
        "type": "t_mapping(t_address,t_uint256)"
      },
      {
        "astId": 4436,
        "contract": "contracts/OmniName.sol:OmniName",
        "label": "_tokenApprovals",
        "offset": 0,
        "slot": "9",
        "type": "t_mapping(t_uint256,t_address)"
      },
      {
        "astId": 4442,
        "contract": "contracts/OmniName.sol:OmniName",
        "label": "_operatorApprovals",
        "offset": 0,
        "slot": "10",
        "type": "t_mapping(t_address,t_mapping(t_address,t_bool))"
      },
      {
        "astId": 2766,
        "contract": "contracts/OmniName.sol:OmniName",
        "label": "baseTokenURI",
        "offset": 0,
        "slot": "11",
        "type": "t_string_storage"
      }
    ],
    "types": {
      "t_address": {
        "encoding": "inplace",
        "label": "address",
        "numberOfBytes": "20"
      },
      "t_bool": {
        "encoding": "inplace",
        "label": "bool",
        "numberOfBytes": "1"
      },
      "t_bytes32": {
        "encoding": "inplace",
        "label": "bytes32",
        "numberOfBytes": "32"
      },
      "t_bytes_storage": {
        "encoding": "bytes",
        "label": "bytes",
        "numberOfBytes": "32"
      },
      "t_mapping(t_address,t_bool)": {
        "encoding": "mapping",
        "key": "t_address",
        "label": "mapping(address => bool)",
        "numberOfBytes": "32",
        "value": "t_bool"
      },
      "t_mapping(t_address,t_mapping(t_address,t_bool))": {
        "encoding": "mapping",
        "key": "t_address",
        "label": "mapping(address => mapping(address => bool))",
        "numberOfBytes": "32",
        "value": "t_mapping(t_address,t_bool)"
      },
      "t_mapping(t_address,t_uint256)": {
        "encoding": "mapping",
        "key": "t_address",
        "label": "mapping(address => uint256)",
        "numberOfBytes": "32",
        "value": "t_uint256"
      },
      "t_mapping(t_uint16,t_bytes_storage)": {
        "encoding": "mapping",
        "key": "t_uint16",
        "label": "mapping(uint16 => bytes)",
        "numberOfBytes": "32",
        "value": "t_bytes_storage"
      },
      "t_mapping(t_uint256,t_address)": {
        "encoding": "mapping",
        "key": "t_uint256",
        "label": "mapping(uint256 => address)",
        "numberOfBytes": "32",
        "value": "t_address"
      },
      "t_mapping(t_uint32,t_bytes32)": {
        "encoding": "mapping",
        "key": "t_uint32",
        "label": "mapping(uint32 => bytes32)",
        "numberOfBytes": "32",
        "value": "t_bytes32"
      },
      "t_mapping(t_uint32,t_mapping(t_uint16,t_bytes_storage))": {
        "encoding": "mapping",
        "key": "t_uint32",
        "label": "mapping(uint32 => mapping(uint16 => bytes))",
        "numberOfBytes": "32",
        "value": "t_mapping(t_uint16,t_bytes_storage)"
      },
      "t_string_storage": {
        "encoding": "bytes",
        "label": "string",
        "numberOfBytes": "32"
      },
      "t_uint16": {
        "encoding": "inplace",
        "label": "uint16",
        "numberOfBytes": "2"
      },
      "t_uint256": {
        "encoding": "inplace",
        "label": "uint256",
        "numberOfBytes": "32"
      },
      "t_uint32": {
        "encoding": "inplace",
        "label": "uint32",
        "numberOfBytes": "4"
      }
    }
  }
}